:020000040800F2
:10300000A8730020D5300008B3C40008059E00084E
:1030100000000000000000000000000000000000B0
:10302000000000000000000000000000B5FA0008E9
:103030000000000000000000DDCC0008D9290108D4
:10304000E7300008E7300008E7300008E730000804
:10305000E7300008E7300008E7300008E7300008F4
:10306000E7300008E7300008E7300008F1530008B7
:10307000E7300008E7300008E7300008E7300008D4
:10308000E7300008E7300008E7300008E7300008C4
:10309000E7300008E7300008E7300008E7300008B4
:1030A000E7300008E7300008E7300008CD320108BB
:1030B000D5320108E7300008E730000800000000C2
:1030C0000348854600F01CF9004800474D4A0108B6
:1030D000A87300200448804704480047FEE7FEE745
:1030E000FEE7FEE7FEE7FEE7C52A0108C13000085B
:1030F00030B50B46014600202022012409E00D4690
:10310000D5409D4205D31D469540491B2546954017
:1031100040191546521E002DF1DC30BD70B500245B
:103120002546002801DA01244042002901DA012560
:103130004942FFF7DDFFAC4200D04042002C00D0F6
:10314000494270BD00487047C452020803460B4311
:103150009B0703D009E008C9121F08C0042AFAD24D
:1031600003E00B780370401C491C521EF9D27047D3
:10317000D2B201E00270401C491EFBD2704700220F
:10318000F6E710B513460A4604461946FFF7F0FF66
:10319000204610BD10B5044605E00B780370401CB6
:1031A000002B00D0491C521EF7D2204610BD421CF5
:1031B0000178401C0029FBD1801A704730B50446C5
:1031C0000020034600E05B1C934203D2E05CCD5C30
:1031D000401BF8D030BD0321001D401E03781202B1
:1031E0001A43491EF9D5104670470346032208705A
:1031F000000A491C521EFAD51846704770B506469B
:1032000010F0CCFE046805460A220021304600F08A
:103210003FF82C6070BD70B5064610F0BFFE046824
:1032200005460A220021304600F032F82C6070BDBD
:10323000F0B51FB40646002082B005464024019137
:1032400000901BE0019922460F46304600F07AF8C4
:10325000049A059B801A994110D3104619462246BC
:1032600000F060F8361A8F410197224601200021B4
:10327000009F00F057F838184D4100902046641E1A
:103280000028DFDC019B00982946324607B0F0BDDC
:10329000F7B5009C0F4600262578641C002D05D04C
:1032A000FFF750FF0068405DC007F5D12B2D02D01D
:1032B0002D2D18D0641E39462046029A00F097F84A
:1032C000002F04D03968A14201D1009939607105FD
:1032D000022400290BDA4042002803DD10F05EFED4
:1032E0000460A007FEBD012080020643E3E700283A
:1032F000F8DA10F053FE04600048FEBDFFFFFF7FC8
:10330000064C0125064E05E0E36807CC2B430C3C38
:1033100098471034B442F7D3FFF7D6FEE05C0208BA
:10332000005D020810B5202A04DB0146203A9140D6
:10333000002010BD914020239C1A0346E34019430E
:10334000904010BD10B5202A04DB0846203AD0403A
:10335000002110BD0B46D340D0402024A21A91403A
:103360000843194610BD3A2800D2303820230246BF
:103370009A43412A01D310463738884201D30020AE
:10338000C043704770B58C180578401C6B075B0F05
:1033900001D10378401C2A1106D10278401C03E0B9
:1033A00006780E70401C491C5B1EF9D12B0705D412
:1033B0000023521E0DD40B70491CFAE70378401C01
:1033C000CB1A921C03E01D780D70491C5B1C521E29
:1033D000F9D5A142D8D3002070BD01607047704775
:1033E0004D41494553515545202020200000F7B557
:1033F00082B0029C00272078641C15460197302873
:1034000002D0002D15D015E020780127641C782803
:1034100004D0582802D0002D09D00BE0002D01D097
:10342000102D07D1002710252078641C02E0082504
:1034300000E00A250026009610E000990127694364
:103440000818020C294680B2714300908E18380487
:10345000864201D3012001902078641C2946FFF7A1
:1034600082FF0028E9DA0398002805D0002F01D058
:10347000641E00E0029C04600198002806D010F051
:103480008DFD02210160C81E05B0F0BD0099300419
:103490000843F9E7836A0B4383624261704700295E
:1034A00004D0816801221143816070478168022243
:1034B000114381607047000010B50649884208D169
:1034C0004415012120460AF071F8002120460AF037
:1034D0006DF810BD00240140002182680123DB0744
:1034E0001A4382600F231B038268D20FD207491C44
:1034F000994201D0002AF7D18168002901DB006CD4
:10350000704700207047006C80B270470246002070
:10351000CB0104D5926801231B069A4300E0126890
:103520000A4200D00120704730B5C268084B1A40EB
:103530008C680B680D792343CC686D032C432343BF
:103540000C69496923430B431343C36030BD00003A
:1035500003D2FFFF8168042211438160704700217C
:10356000016001718160C1600161416170470000CB
:1035700070B5154C2078002821D014486178007867
:10358000002906D1002804D1104A2032927C002A5A
:1035900002D0012903D006E004F056FA03E0002827
:1035A00001D109F0E5FD6088002808D160789625F2
:1035B000012805D00120607004F0B6FC658070BD64
:1035C00000206070658070BD7A020020502F0020BE
:1035D000F8B5074603F0DAFF334C344E344D012F73
:1035E0001BD00027AF80EF802F81002007F0DAFB8F
:1035F000002007F0F7FBE07C07F01BFC002000F048
:103600005FF8707C002803D00FF0C0FD02F058F87E
:103610002F7008200EF092F8F8BD234F2549203F67
:10362000786840182449884206D2707C002803D06C
:10363000072000F00FFBF8BD012004F0DDFB607CEB
:10364000002801D00CF0C6F8FF20F530F8810C20DE
:10365000A8806420E8801948288100200AF0B8FD7D
:10366000707C0124022800D1AC7200280BD0B07C01
:10367000002802D108200EF061F809F079FD002041
:103680000AF0D4FD02E0012000F01AF8707C022854
:1036900002D0012007F086FB002007F0A3FB0120E9
:1036A00007F0C7FB2C70F8BD702F0020C030002041
:1036B000C02E002080345BFF80B92A00B80B0000C8
:1036C00010B50F49012807D0002048800AF07CFD82
:1036D00000200AF07DFD10BD642048800AF074FDD2
:1036E0000848407C002803D007480078012803D010
:1036F00001200AF06DFD10BD0AF093FD10BD000021
:10370000C02E0020C0300020502F002010B5064AE7
:10371000002804D0014610460FF0FEFA10BD00212B
:1037200010460FF0F9FA10BD000400403EB5044603
:103730000020009001902046FFF739FD02460290DC
:103740000720801A694640182146FFF7FFFC6946AA
:1037500008780007000FC8724878897800010907C7
:10376000090F084369468872C8780979000109077A
:10377000090F0843694648724879897900010907A9
:10378000090F08436946087202983EBD05490A7848
:10379000904203D0062802D0072008707047062008
:1037A00008707047A401002070B50024054D064E36
:1037B000285D0BF0FBFC61007052641CE4B20B2C22
:1037C000F6D370BD885501086439002010B50AF0A1
:1037D000D1FE09F01DFB0DF041FD0CF021F810BDEC
:1037E0004D414945535155452020202000000000FF
:1037F000F8B53C4C2078012858D13B4F787C002804
:10380000AAD7D3C89A2CC8955D6B8172FF87D14126
:103810004424ED7DD6AE7DFFB6E8B48FBBDA1D251E
:10382000470D2265BEBB200A63BDD6E5AE5F744579
:103830007F586AD80D4623D0F7C2A1259AD0E41F3D
:10384000D553B5D1DFC157BCF0FBA868D95371225D
:1038500086A8CC85B4C6E5816EAE037E02A6C4FE02
:10386000AAF602A246EBE381205F76BFA31C967BFB
:1038700068F6404CF839F2F92245BF8F74A8827877
:10388000C669ED8CC000C910FDA443B2B1FE00A909
:103890009CF6385212460ADC0085DB0C9BE553D3BC
:1038A000EDC8BCC5A7FBE47C48D4C947BBBED18DDD
:1038B00047D233C8A119FFDB0630289C12915D90D6
:1038C0002C9355D76D8A07ADEF3AA28DB459057880
:1038D000D93B4CDEB8AD895C727427B1F848A5219C
:1038E000A428C083D7AE5BFA13965DF16713F72D5A
:1038F000DADDB17E34579135A75474A9261B1C0F0D
:10390000C3F94DE81AA51AFA05989444B85A133227
:10391000843B643E22FF2BCF32FF8F8EF82936F88E
:10392000F6E2DDBCC180C8FC266F27ACB7FCC20A3A
:10393000FDC85E4D4DEFF32A50A21925C615113270
:10394000F5B4481C18EC15F5042E7837CB781070B8
:1039500028E678AAF023B216FF5D075F2D077E7474
:103960006DBFA8E5CD1D03C68F702930C314781D27
:10397000111FFA40FD6E52AB34D95CCBDDD6F97D18
:103980006E831BD727D7516B558CC472E75EE289D3
:10399000A5058E127F4F7DE452F6ED3945D78A8218
:1039A0006A031E9B0BCAA9FF96D75CC89714F646FC
:1039B0005FF4C54205830C0B5648C1DCBA2A43F7B5
:1039C00007C4DC642976653A619971406A6681535F
:1039D00081CA1F7A6324202A22D4493483B2B0607A
:1039E000CCC43ECA1FEEE4933ACEA488F93FE35715
:1039F0005CEEC5EE72FDB38DF7B9F83B73ADC5CB88
:103A00007A00861A98B53799F8F364AFE1B6387939
:103A10002C974BE4DD6A3EEA402D1E2F2A71B095AB
:103A20007AE3928C0A70B9F8240F00116CE2956960
:103A30002DACB315CB59F7536E48E587E8D34A0C44
:103A4000B77A137768F2F0F9486366167E75D57811
:103A50004D77A8B83D484D8372A66A87EAD28E9DFD
:103A6000A7006AB0F8A5757D548F41A32FED53B020
:103A70009F0E22ADA3AF3E5B877A518EEC994570C5
:103A80003C440A0448E9853250F6D47C6AF31012AB
:103A900083EDBFB8C629F9D49FD529D3155208D4D0
:103AA0006C0E89B5781DB0C63A99FA33140FC0BBB5
:103AB000464EF9B6DC82AAE6BA07A43AFDBFFE6715
:103AC0007C1FF2B4736A6CDD9F7860F26CCD8BA7BB
:103AD0009D897C60E144495A4FA607555D877EB0B9
:103AE0004803B44B55A515D52E74383E85EC5D18AA
:103AF0007FDCB78A0A441F0926944C6A3362593323
:103B00008F6ABB4CCCAED86EA988706E983BA689E4
:103B100086F0D6E316B8880BE5E2A2B8C48BB74EA0
:103B2000F4D190C7E6D5D4253FCDA6053323839B9A
:103B30009421F3A7F2736073E48FC7275E4E8BA2C4
:103B400071F3F6173252855A01D86D2B8758A1D0E0
:103B5000E674898D138AEBB78F66A6D2D28F8AF06E
:103B600019AB96BBECF8F19AFE7DA24D40FE20DC2D
:103B7000B49273A18F6A51977245F3B860E2E57A07
:103B8000FE03E800F509EEE904A8E31B15E796A299
:103B9000EEF8F831311A095AAC77C1542BAD94F1D3
:103BA00009588BC06547AA0C30B3B9A17D9F7156E7
:103BB0003EDC10361F0AFA99D0088CC5CE209CFC3A
:103BC0006BC89485630876C8D14745895A6F8ADCEB
:103BD000C2A1D5AD8BB762124DEC3059239A5BC2AE
:103BE0004D18D3899453D37B7238ECF3A69C1C995F
:103BF000E682DC0EDE34256EF61D3D6F03118AC8A9
:103C0000012672B06BF7E1655C62EBD3F787703128
:103C1000CEA1DD86C2247DF6A08DBCF931207DDDEC
:103C2000BC0D256CD83B32146FAD5D86C997B214BC
:103C30007EA26C286B7FC27AFD9A3EC032808EEFE6
:103C4000D753FA510086559CA72404B21B4376F241
:103C5000F669AC2DAE83A28A192D071A0196CC2ED7
:103C60004EF84E252EBF197810325636230F8B8A08
:103C7000670B4EC44DEFE0D93F99458842A8E1F467
:103C8000C5BFE7AC300B6E1C4378687263F606A6BE
:103C90006B85308A32690E0C828B4F4BF3B3592BF4
:103CA000FE6036A759DCE8A32ADBA9DA111DD85734
:103CB000EEFF5A94D376FD0AFEA5D02D652657F067
:103CC000A345D2E0CCD53FC39FA6E9FDC13705B7D8
:103CD000DBFDB6E9488844A1B30B2FB1B24DD549FD
:103CE0000621204E425059F0D5705AF0C96BBE0FD4
:103CF00085D1B274E18C951FAD300BB934A90D3D5F
:103D0000CAA94B100A5D1E610692EAECBD5E7F33C4
:103D1000EBC5B1ACDA0F6E27DB76779EFCF180D174
:103D20000B726C438A7FD22B499F17519F4F3C9255
:103D30008695121D4C88F72A70A0EB6DCF15B93609
:103D400005F459A4E9E111FC87C85857938EE8E0BF
:103D500022FC74C0D0CBB7CE7974A65F29DEE85DB3
:103D60009DFCFA94955416DE81FC8959EE8E086309
:103D70008A9FE541090E567B3F9DECBD094674A51F
:103D80004E8B1F322AC0F15ACE20F12A636952F5B8
:103D9000CA8D4C1979FF25CC57A5F51902D7D8AB98
:103DA000D9371FBE3278ADD695287CA8CFE203D68E
:103DB000C7E982833C0D08710A90635992D9234266
:103DC000F786DCBA645145C374C3030543F1761B1F
:103DD000AAFAE798A16229BD70BC8784883DAB6AC6
:103DE000C9393D32757EC55A83ABBBBC027F7CC5E9
:103DF00074D5C8868B4DE25D9830201D7C584239C1
:103E00007F0BA58C90B3112ABD6D14C7AA76C8FF8D
:103E1000786322E7786B36EAF13DFEED4331BEFD73
:103E20008E1092ED7A169A4E830387A6CEE29F6992
:103E3000D7AE7321EA24FE766DB8115F7EFFBA44D7
:103E4000962B3B33660F930708594F705DC34D7433
:103E50002434BBD0768841051052038440D3869D1C
:103E600002108A7290E572AC8D7C49824FB32AD6DB
:103E70009A0E26AF18C72DE2C4C7DEC4F51892EA21
:103E800032B457D41365A23D592657711C2D3F1DDE
:103E9000F98BBAB8DA2B57491EA5032D9A1EF7D411
:103EA000782089B55CAEACAAA01E997B628ABB93D0
:103EB0008532F6460964B2CE79DCBC7244A9BD1DD8
:103EC000D8B1FC64BFBBA8270D526B237C88B51703
:103ED000FF8B3920E7BE40AB4F57E610DE147C4025
:103EE00049D27B4528E3E5107B57766833118C83F4
:103EF0009F8DB68A7247EFCC2FF5BE9132519E9AB4
:103F00008F6BB04C09AED6BF7947FF244735DECA68
:103F1000712704ED99FDF8972A845D6F595AA7D34C
:103F200060E790C73261D1F52530A3F51869A2F694
:103F30009C971027AE25DC152415B2A35C47648C32
:103F4000A3288F0F5B2D65614210CC72C6B07A0B2F
:103F5000093E06750689620F56762D89433D58D372
:103F60000E36CFB0CC2D4417C9C1B02953A56884F3
:103F7000C1FF86FB1E09A67E8F92253600E22F2206
:103F80003F61E1290FD2B6242013694221A4945B3A
:103F90009E6DAE0941DF420B3BE5DFC5D0ACFCB105
:103FA0003B9F9AF4F12FA90E1FE3816C4D5E745E66
:103FB000507C697BD4F793C1190F7A36CBDC81969C
:103FC000EAFBE1726EEABDF8522743195A567ACBE2
:103FD000F323AE182D91667F4F7431512AA8A5ECBA
:103FE000EEC3C6D4C121521911B0EEDFF07E189D88
:103FF000DE4F7404469CC5F5F23D65B06E11FB546E
:10400000D67E8C6861DAD8A82DFEAAA3A38871E1B8
:10401000BF5ECD1B82167DF6F86CB9B74BDD64ED43
:10402000A5682AC4B8F63EA6CAAD4386E6B5329D59
:10403000C97749BE0D04D227D193A0F3E5FF15D966
:10404000924AC1754244079A250466E7D95B750315
:104050007772CC789C4F0D29CD9BA329404FC2F697
:10406000A1D66C752747CBC368EF5BC654CCFB1752
:104070005FD4095AB8098049D58268121C39AA1E32
:10408000AC211ABB7FDF61CCF6AB6EA248BB071038
:104090003E34F803EFBF4A2C5E3B5ED6C3E935DA07
:1040A000C55E42127DF42D315A0DE1804922278AE6
:1040B00007D65FF2A910C54CF9E7CD931B28182944
:1040C000A14FAD4ACCD90355FFC55A2CB554BB5F9F
:1040D0006A25A514A45DA78D43A322917B98A2D144
:1040E0002E1C3156E5F1EAABB481ECA1AFC3F54B20
:1040F000A8B1A58EA61A810705900D2859C0BC3617
:10410000CBAD541012540A990A6AD808CD073293DD
:10411000D41554FC2AA26A0673AF378600BC166E0B
:10412000EB205F3732006572CCA82725837D3D8266
:10413000ED58F7EC0F780A67EB741DD5CBCDEF1F68
:10414000E5B569D0B0DEE5A520A568274BBD19A06F
:10415000C96C955D2067B3EEF2A540E74C0C108B5F
:104160006E45F9BDFD8812DFD1FCCD36F114FA2F72
:10417000F4ACF849CA5E1DBEF1156EA45A82CC2D6E
:10418000F0DBEE4767EF4503094DDB4549F2ECA252
:10419000061D0DB082A824A3103E3669B7EE9953D0
:1041A0007E63EACB7A57198F42455EC4E873BD83BC
:1041B0009978FE12CDA90451155D63A99BC97B9323
:1041C000053E568FDD2E460A3333D3356F52C84E27
:1041D000C46B27816615D58E2BDCC7947185864A02
:1041E000CFC32F7B5517E8C924FF812DBE271CF6AE
:1041F000CFE6687B3518D3DC25B9299ABD6D0B163F
:10420000FB19A77CA0462920877431A5FA9658B7D8
:104210009E9863E6796A36EADB3FECED097C261D61
:10422000C736967F2DD688A6A687689F89DC542B33
:10423000727A3B79EA01EF0BBFE882D7E42B4BFEA1
:10424000D716A34176BF5A0489714770D608DBA8F8
:10425000203CA9DE1DF211F206EBAA00488F97C29E
:1042600005411A4FD413A172C505100E86CA60BB52
:10427000A1CBA27365C914F7B6A33F3AD7E66D1B6D
:104280002E9BAF3C4BCDED689EB454A99802317182
:10429000A6CBFC28ADF7A19CFA065D6E46F71792F7
:1042A000FC1E76EAFEB1A2EA1189825CCF0FBFD074
:1042B000AD86B22651626A7CAEFE50A396E7B67513
:1042C000E075FFBD70BA38509AB0F3616EEFA07F11
:1042D0006D8679A873E3C212B6CBAF17AB787FB007
:1042E0004DBA73C92531F17C3B13391B63325D3BF9
:1042F000BE9CC73D5B93FF513609B84B40D788023F
:104300000F3ABEB4EC5FD76E5F890F9FB2B7CD5F37
:104310008B01D43384B0E04E29ECA368BD5A9712C8
:1043200074FD5155B714D89D0248A3DD0F0CA6F6B5
:104330001725DB0CBA4FEC1B25CD2B8D4DD2777595
:1043400050EEDF674205E4026DEFCC730770A2D137
:1043500008C9475FDAAB24D5D77EADEA431E58497A
:104360006ECCD3838E75B3BCEE17A24DCAC2B9CC46
:10437000B46830C7CE482309772DAAF81803AF2BAD
:104380006A98E8F003F02F87A5751925848C68A238
:10439000A7C6612131E04323101AC3AD5F38DCA208
:1043A00078C377BBF3E5F4DE3BCC5CC8E021597AF7
:1043B00073FF3B97D84A0C6A6C9B8CE5CE20989192
:1043C00063A04B139F9A71A8D7B502DE7A121543EA
:1043D000757A6A46D2BFEBA524F47800A63B045D4B
:1043E000E6C68328A68A57A5B109EDD2F54FFCD1C0
:1043F000FC16945A61BB59B911AD2DF39A4F8BC974
:10440000EEB376089A63F1F05E935554245870E148
:1044100035E1CD1B869B7DD66816B89FC5DD7D83B3
:10442000816D0B9DD95BD81DC57B6C1FEFFE1355AD
:10443000807DCE065A7AC378EADECB855E8104BAE7
:10444000D351DB67207D5B6C16F36CD4DB0B89FAF0
:104450004082C44B7E4E5D55F40203760457A99802
:10446000F51E4E67BAD131D60AA8453FB133F0E9FF
:1044700065B1DA2C2BA38A6FF112245A05142A1C79
:104480008D5F21EECFD98B3D02740078B12617875E
:10449000CDCE3958EE0F0D0CCA895ED194E861BDBE
:1044A000FC3AD4A3573CE673EB648180437B987A53
:1044B0001EFB43FC0A83FC282728D19BA892F011FD
:1044C000835A1282A0ECF8A851336486B451DA5EA4
:1044D0004F4CA53B31CF857543AA4BC09A3D254330
:1044E00005832144F7013B53B1815D21B6D9F725FE
:1044F0008E23D1D78C7D9DC54C1C1CD8BD680D6703
:10450000CB714B3A085D0E60E533C81DB586F31FCD
:1045100024A45A31FDA06BF7003A8F0681FD30D8F4
:1045200066EC620AC256B67E276721C01770CDDAE4
:10453000FEA4A4B0DD857A98E4883A43DFC751FE33
:104540007D8CA656A31030ACD8357AC7BBED38F1B8
:1045500079FC4B912CBB30C0D7FC547F6B5C0419A9
:1045600099B3FBB1AC7412D7BE99AC5FC88BF44F52
:10457000E839D8ECF57ECF7664E1169C85F4FA8DA7
:10458000BECB7E461372C435D9B6D19A62D2A2B8D8
:10459000F3BD0BA0C2685D3113CCBCA9A467E80EC3
:1045A000DD781E9B8488A9FFCA4D50A4C7DDF29E0A
:1045B000FCD8CC46EC0806A05B9D392097017D6AAB
:1045C00027639DA3EDEC616F060FDC68996BA6F67F
:1045D000B1EA3708CED6DB06584177E47D17E245CD
:1045E000BDA529A45878E6555346D5D9F03AED56DD
:1045F00076663E3E84DA0C55D7E7D9AC7D700FE77E
:104600005BAFE7403041C69E0CF01102E0B64C7F34
:104610002C976B9C8C6D371AF5B83B16084EBE4F25
:10462000C6CE5B2F2BD6D93F2E0FE416D97F949997
:10463000867DC3889B94F33D05F01B87E6D2EA5044
:10464000A5223FE864233B64A9357770F647DA7802
:104650009F7588DE5DD0104D0A477AC780489E045A
:10466000C4594AE9F433847A008F20E90D83652721
:10467000930E2EAC29C95DC3BCA53303DDB5EDAFE8
:1046800088694D6968B1BAA4A1275DB0E393228C13
:10469000EFB511FAA9F6AF04A5DC0305693F245173
:1046A000DD0089B5F75F30755EC1E78B4F8EB12EA7
:1046B0005EBE06B1A0867229AEF643857075B4ED74
:1046C0003FCF0C83B2AAA8076B7F6B031C88A41989
:1046D000F3B77504CFD26FFF4686A5EA7FD275D9AE
:1046E000C1B17864253895DC4AE84964525DA2146A
:1046F000E953B757756CFE81BF42CF063A0A98BAA4
:10470000BEBBC82102A1D7BE738800D3E27EED3BB9
:104710008EF5F76AA906EB86249882E19582B74662
:104720003831B5969690EF2DFDC59D0A285102535C
:10473000B61B7AABBA9F9E97024CAE937B1E74A5B4
:10474000EBF1209023D5C45EE1B4ECDE67C5A20195
:10475000307B62061A8A0B27EB2724EE02FD76DEF9
:10476000EB77D08288678BD1667988A4BD29865083
:104770003BD863243F54333A50E8DB4D1BAF7FFBFB
:104780004E3DEBF1FCF99AB9715C201A848C96AB22
:104790002E6ABFB19E5F339E0715366ADBA2DCA18D
:1047A00029CA8199FE4EA496AFEDFBD61F2D755CEC
:1047B000717D22F24B22FE695DAF8D60DFB496A958
:1047C00013C76B50BD777301D4114AC95A73ED5D9D
:1047D0000F1C2A5AEC78677BB1BB7809BB5FAF7EB0
:1047E000EDC55A4A5235DF521145EB2AB4E71C9504
:1047F000F5E715CF9EC92733E0703FCBC0E08BCBE8
:10480000FC727B479A0569AE4DFEAAA3339771E10E
:10481000D173CD1B9693759F3A50F1D73B427E756D
:104820002C672B6FD9EB265760AC5485CB2FE696BF
:104830007E376AD86D8BC358DBC5ABD4FDB844E76F
:10484000D65BB3F1101B25DBF62B74D5A17176F284
:10485000771AAC75CE715D7D06FC0376083F4B562A
:10486000A72E6F8D6E896B290806561EA2E4CBB465
:104870007F3F88BCF839E9F9627B88F82510EA04A3
:10488000046FE87CDF4577A71AF86EAA97DE151A41
:1048900004043952CC470FD426A54EDEEC4944D34C
:1048A000E0C89CA3183DE00B5AB4F1164945F847FF
:1048B0004A545F9EB0E1D972063CC7BA164459B05B
:1048C000E3722482C57007ADE23BDC81B551FC5E2A
:1048D0002FE57D4FB27D325566AB25B1404CB4BC5F
:1048E000C46A214447AF5BFAB2E81DA9A10BF6DE0A
:1048F0008AD2C1198D7CE1727BCF7C795EA94CCEC6
:10490000CBA84F1049FD43AF443AB87BE37403C2D0
:10491000062DA3C76A88B8CF308086D47A413C017F
:10492000F9C2F53ED330A645067CEF69A74CBCB56D
:10493000595A041DBF40F2A6EB711AD5CAC5658845
:10494000F5B428E654C115F5C8AD7D5FFBB519A8CF
:104950007CCD69A8A0C1B216F35C55C784D4641994
:104960003DB3FBB1E46112D7BE99EC50383A38F848
:10497000C539BC2CBDC07AF3EE4D17058A96385C5C
:104980009CF1E1147AFCB43B6BB2F4B84E0B23E615
:10499000F04D7AEDB91E8DCE1634CDD0E7DC996A94
:1049A00028776E06CBFE09BDBE20AC6147E3F26FEF
:1049B000ED29BCDEFC0DA6C35FB5E351376B7A620F
:1049C00006CEAD029DD6E1A86FCBD3CDCBF087A2AA
:1049D000B03A654D310151437ED56D35A5716E27D5
:1049E000C5C203ABD97CEFCB77EA342FF4F7ECA741
:1049F000FDE591267A0C67DEF78FF734C96583747D
:104A00007EF18114A9D21971C40CB9CDE19449A7E2
:104A10002C97CB2E7CB26DC7D5849E1D06EFCEECB5
:104A2000675C92772A16E1039A7604ADCD1A64107A
:104A3000D210C271EA0187C65510BAEDE5DB3AA47F
:104A400037483AE867222AB9F9C9E71252EB2B0036
:104A50007CCBA9413D9871C03291EABD4D22F7C788
:104A6000AD624019F89B7BA5C8A2BFA90D7B2EDEC5
:104A7000902EA27379323E8BCC392113BC5C135833
:104A800025B35C24D8B6AD547E305CA17FE131748F
:104A900013A0B1481BD5AFF48A3C032D5530F72B3A
:104AA0002D94B3DC0830527D7C1AE23D9356089376
:104AB0003E840667084D228CAF04BC5225328A50D2
:104AC000D049FC4C794A9B689E76535B3A15A98F76
:104AD0005D437DB81D68770A1C5EA3C74CB77FB0E5
:104AE000B14E51FD0951D59DB6177AF07A3ADC9056
:104AF0006F4B3109985BDA3B07FA0B828F1008087D
:104B00008E90B9BC0E3372B684A7249A18436C35C4
:104B10009D081C9B2B02E86F28EC5A25943CB79EFD
:104B20000B1992CF95B1CB9C284BB8C45E88A2FEDE
:104B300097B7DBFF42D2CC4FDC802FFAFF2D708D70
:104B40006C807D2513F3E502B97DC6DA6502A629DE
:104B5000530AE5350A1A2A257FAB2620E08F8CF10F
:104B600054037C899D9CBAC09682AA1EE19C627403
:104B70008DA5D89918F1536673B544E0118F2F2392
:104B800096FCEBF90C94A6B98CA869629582947B8B
:104B90001AF7B061F1884303843EC38D73BBDCA177
:104BA00079C48BF37E057B86B5D1F201443EBDC44A
:104BB000688597585521FB6A1C06FCA2178A90F459
:104BC00062526952CFB570A0A62242C0B6237423A8
:104BD0006FEE3B164C30677346447A01AA3AA31D28
:104BE000FE36CD7C1915D3721EB9ED93F0B6176859
:104BF000FFC77ABBFF34276FF71D3A664AB18A199F
:104C0000A9FF766065FDF9204DFEA95392588926CB
:104C100026ACDBC263C17DD6E017B89F17477D8500
:104C2000BC6D2AC4A88C26EA2D875677FE6A706F61
:104C30002C806BD9677BC814BFEA8BAE6EB2054D72
:104C4000C469B2C193215FB7F4D94D92BA295FB359
:104C500046EFE51177846E5428012BDC80C4F363A2
:104C600083316E7D52C7E2A1703A1334CE3E8B8EF3
:104C700067F02034C84BECD9D99C40595475A9062B
:104C8000C694A85CDFB3610C42842E80F0048514C6
:104C900061AD31338F8B039D67756FAC832418E74B
:104CA00034AAAACCB3DF8C9FBE2E80EAA2D0D85DF6
:104CB00068935BB4ED7EFC022227D74B03DB5740A1
:104CC000AF2635B8C910149DB09043D4B7A9BA9394
:104CD000AF875DE1B9978C854B586A5D6AACAD30A2
:104CE0000378242CE9773120B1885C01A703E7B071
:104CF0008BD2A1E38A6E9115C8B07D515CA90D3BA2
:104D0000BBC64DC0785A0A91150FC1185D70236853
:104D1000C422945918AF6B27CB73A77CF80616FDF5
:104D2000F9E259BAC080B4FF3507366DB625DA22EC
:104D3000ED0C07CDBDF6F12A52A47F25CB15BD336E
:104D4000FBDD5081A86FEAF52D2878E71A31A773AB
:104D5000369361A92A037A5E4D7E19B8D3C975DDF1
:104D60006D11B1908D411ABD4434AA50C9FFC832AB
:104D7000C28FE09C26694336B04B1CF52DB2F81467
:104D8000BAEBE4326322F59305C0D14AB39FA6D3B0
:104D90008C4D171D8996C50C0EA4941F05E690F541
:104DA000206797337B51A4D5B728F690E78BE5664B
:104DB000E05D64EB84A4469DA59A09203EA97A9BF8
:104DC000EF9EB3CFD5E34DBEC39B62642BAE8F7A0B
:104DD0004FED9B0998A124DE008E19947185EE2A6F
:104DE0009F3C179A54EFBD31701BFA70F8C6BEAEE7
:104DF0007A47933626D5E78D7FB9D435757C4A46F8
:104E0000475209DC484E39694B3F31AFB06948A77A
:104E1000C9286BBC7D0BFFB2E525388F42293ED7F0
:104E20000F9E93862AE7929E228FD4A8CFF094B942
:104E3000771A42D0EB08F4AB65B99BDFE0233A6BFD
:104E4000962BBA4166222A43714347702686CDC508
:104E5000B4F30DB03968005CEC3B470F9106866DEA
:104E60007D9D22BB79987B8F8D6A50CF8E190B77F1
:104E70009CB7AD6248D335A9B7CD31028DBD424054
:104E8000B9261C39E92BA53C54365C71EE2BB516BE
:104E9000AE7BB56947F7A2042DD9020D1552A0AE1D
:104EA000EC5189B57815AC8A59D3E65B244CC1B373
:104EB0005AD7312E1154AE1EEEC87412DC5E367D08
:104EC00030578D23DA98A807EFE5396E4445E14362
:104ED0003D435138E0D24553B481A5EE111D7FB951
:104EE0004D226A3F2530F47D7A4B68A030577DD73C
:104EF000FA82CBA9779CD701C6C3BF933AFAD9549B
:104F00006F356815F6A6D64ECC69D0524245CE5FB5
:104F10008F00960D59C6E83929E4A348D4BAA7E909
:104F20000AA8D89A9648D005422CEB8058A4A2FE35
:104F300091B7D8F7BFBFC74727EDA65B5CBF7B7DA6
:104F4000A0D8EA2E521BACAA41E8CD83875EEA7155
:104F50000908475F0A136B1B9795FC2242E589F904
:104F60005E950E49B00D98D02F45A3EE4ADC71EF47
:104F7000C7FF30C51E5A5A4431179C80316F6E7876
:104F80006D3AE3DBED6AA5493D0B68118CAFD5089E
:104F9000CD91F8C9418F47F32F4DC3A62E5C9C9F3E
:104FA0003165A1F0FD6DA8F6324392AB090975A6F3
:104FB00036B268EB574172331C0E8D359E8B1F5FE6
:104FC00079C9E309BFDA7050967BCAB3423B3DA36F
:104FD0007F732B8A6C562FDB53DD30A1ABC2A5E566
:104FE000ACF98BB408F7D37311B9ADE5A01CE34E4F
:104FF00073CB2BB1ACB027B71D3732078AEB8BC10F
:10500000FFD6335E5288D1A75D6BAB73B3B951B68F
:1050100055E1CD3BFD247DF6E017B89F1F5F7D85F0
:105020001F272A9CF4E426CA57BF56779EE5324DC7
:10503000B2BC6BD81734C37855DCABD4FDB804E3ED
:10504000D75BB3F1101B25DBF62B74D52F5C76F202
:10505000771AAC75CE715D7D46E90376033F4B54FC
:10506000A72E6F8D6E896B2B70C85636F31B8B8AFB
:10507000670B4578986D420127B440884CAFEAF43D
:10508000C1B9E87CAF8471512EAB6EA2A0BB061EE5
:1050900064587C1A2BF71BDD1545A101836152B3BF
:1050A0007978F98548B1E88376B3E9E6EB01D85D14
:1050B000089B4595A47903FD64E8D122334EDF10A7
:1050C000A624A411CC9146E4E9A222DEAB490478DF
:1050D000783DB5846CBB848CEB892A610BF3D44694
:1050E00014EF6D4513C8A52DFB585E99EF02BB3D2B
:1050F0007405F4A69CE1913585D07C794D54220C41
:10510000E4CD4EC00685364E0DB0CD18ED384BF6C9
:10511000E02CB5AD2AAF6E27E574974BE9203C082B
:10512000FEE2FDBDC352A623366F32E13CF7DC4FF1
:10513000ED57231CAC28F72A6EA21B2783C42DEF42
:10514000F064D85A82A814F4EF387DE7C036083DE1
:1051500065546D992063BDEEF2AF71163D0E71542A
:105160001C67FBB3947A2AD7CBDCC5E2E48BF92227
:10517000F65FFD919E754336444654F41D96FDAC92
:10518000DF101E1544EEAC53F4008D91696CA3B48E
:10519000A94D0FA0DE6C3D3112CEF5787FBE9D4348
:1051A00078AC0E067B55E1DE82D85918AC5AE30B79
:1051B000EC2B8442F4A503711E968364F2007BBB42
:1051C000F811DDBFD97141CA5BA600092BDA795EFF
:1051D0009151B78A61092A2E79D46234DB10C2B5A5
:1051E00099382B3335451231421BAD00B877DC3B83
:1051F00083BC9416E371E785D319981D4DE00C1616
:10520000334297E1FD9309D44C27345F003CB7AF9C
:1052100058FA73C030220787A86D0EE21E17F605F4
:10522000F7A39DE6294E9094222FE497CEEA9C495D
:1052300052293C80E3F1EF272DF82A12E423024C97
:10524000A7B733112E626AB943610F30668EC6A8C4
:1052500094E99825CCE80075E22B4ADF10D5876DDC
:105260001D95B5371D1B7BA5CCA2407139536B4BE7
:10527000814BBB1B89E73CABB274A3CDC6CA1551A9
:105280003985443F76B88B5FA1F1B47F7B6C3FA436
:10529000AA57A1F5AC27630999D5D7D27552032433
:1052A00089DB8765C755A17A141FF6C6EB808D6828
:1052B0004E2306B19C80BA73A326768CCD3241EA88
:1052C00099CD02935367B89A94A01DDF67CD9FA52F
:1052D000ED4C79B8DF6C5FCF9258AF374FE266D8AC
:1052E000099B79B52BE8B953307D7E29740A4BF8B8
:1052F000BCA692527C4C9B882B4C01452B979EBAA6
:105300002EBDA821FF7EDB659CCA0423CB34C38756
:105310003D2EC6AE8AB0504D2A3C6265841948992C
:10532000A31B90CF6CB0DA2549CBB348052C0628D7
:1053300086DA2428A796DCD229CD3B8DA298ECAA48
:10534000B6B4DF67CA04E4025175DE1B0728A1F179
:105350001773518901C92D0E881C3EBD48D795236E
:10536000E07C7E3063B21F1D7E8203B4442E8153E5
:10537000D492872C12D643F37195553500E2D1F4BF
:10538000FFBA152E61D4B6248AE26B9C9518958BD2
:105390000D25A0FC998943034C80C6CB2FADDCA220
:1053A0006A056BE5E707EA9EA621F1F3056E7272C6
:1053B0007579208B2B487A0B1DC6CCE1DE99C5C1CF
:1053C000F13263584C212A9C4DD7C982B3A105966E
:1053D0005E4B2A5A3CFD667F6190586FAB1AFACD3E
:1053E000ECCFC7E4783BD3AB1791EC0B87600C0490
:1053F000E6822BB170B335FAF184752E32268BE933
:10540000FE0671009A23F5085C2BAB81E2E470A1E3
:10541000551BCC53976C6C96B158C8F8C5977DA5B1
:10542000BC4D36F6C98B278A6FA457378FBFB30D93
:10543000BFEA72B1757CCB6167A8AF25B6980BBD8A
:10544000C730FA41607C41D6E33994D0DFA23EBA3E
:105450008670BC4EF6562D3AC9982B649034C60F10
:10546000EF6E617F3C95F3EA48EF2671A97EB7980D
:10547000E7FC45E5B079E70B3066503B1D379A43B2
:10548000C10BB86E5FB29B3D4AEC61A0A20A101539
:105490002C1C483D11680BFC0F755DB6F2DF51DB2B
:1054A000FF52AF8D524EE8535BBC99814303DA3D06
:1054B00018045864A159F7490470A72C1106DD237C
:1054C000A10CD477FD4504EDE7A017BFB91370E731
:1054D00063AC877ABCE4A8EF61C8A62859F768686E
:1054E00026196D0E35C3D7B093E34792A5433D65AA
:1054F000C892BB360E3CD85D76814CE45261F2B95D
:1055000033344CE4EC7630FC3FF4C8159DA6EB82B6
:10551000C60594FE1CC721E7F0F7F68DF8283DF884
:10552000EF22ADF482769F0C070C6631BDFCEA0BCE
:10553000DC3C031DB6F8D02343D01A00C2E81DEFAF
:10554000FF644458488615D7D91579377BCE119812
:10555000713C671033B24A83B289163B2DBE9C243E
:105560006E6C7D6CEC2037B8CF04ADC9C4E5ECD3CC
:10557000C257CEB0DA6E71C2AC0C14952CFFB01CC1
:105580009FA25E2F8BAFF476B8FFD54362FA9AD50F
:10559000F04CC35281D4C5EC310CBDC1AF1E954354
:1055A00074AEF63B7887CD0252905DEDAEAEF79FBC
:1055B000FBD9F423CDA4CF83532E7BB986C968F3DE
:1055C000EE8655FC2A7F08E863502C6423F26E1B9C
:1055D000B01F5CFF3508252E10BC76C5403AEA2680
:1055E00025701F98561678C876EFD15F62F0EC866A
:1055F000D89790E62F2BE68D00C3D07D82ACF43691
:105600000DDFDD5C6B5F36695515298F1FB9378754
:10561000A49F6D6C97B92A72E52AF92D0544FA7991
:10562000A766B2D62B3499FD0FB9FDD221A6F28719
:10563000824E3E5F3BDCF75343482BE9E3252304CE
:105640009BD25201AF1EA7F399BC61226739BAFA07
:105650005C9780FD3E98FF8ADDE1591F29C24E51BB
:10566000F0D7893DD1A579A5C8AB66F33EA11B84CF
:1056700019E08A360A6F1ED9B48E4141E38412784C
:10568000CB6396DE63691B8AA6BB5C813BEB3174FE
:10569000BB1EB20EA9F5D2D07A2507CD45A90824A4
:1056A000D9D9DB899A1A36C8A732F6C61E5689D0D0
:1056B000DE2CF80051622A7CAEFF46A3ADC8BE1DA9
:1056C0006882F42C72E2A80F9B806B02647BA0AF0F
:1056D000B80D69F5E3D84E536A0FAEE704AD5FE944
:1056E00049D27B4526E1E510225078028E345DC315
:1056F000181CB33C5FF5B4182CD577D3B2439DD9B1
:105700008CD0BD0DF41ED7BE7380F82F93EBCE5214
:105710008E409230AD6274972859B6B891548797ED
:105720002AAF35CB92B087F905E2F6D9020CBB3629
:105730008DC6D877B49FDC9330DDB8D25FC77AA529
:10574000ADF5D0870C8BE68A4F30CAAFD763A05B2C
:105750000DA273570A552B9083E654565E6C8A81CE
:10576000107B24308C66B94A7A1E84B4424868396A
:10577000C0DF15251AD87FB77145BE380DA7522353
:105780006E40E4292FD7196A3B9A7F2B91ED5C1B61
:10579000512BFFCEBF404323C057C285D072DC815E
:1057A00059C5A1FEB857FBFE7BDCB5942D0254769B
:1057B000568C33DE1B4DA8995169C8A0FEB5B7DDE4
:1057C00043A04B529FC741ADE35162E07A52552B43
:1057D0004E6F1E771D7C517471A748049FDE94356F
:1057E000E8E739315890D3BBEEDCE8BDFED803F5CD
:1057F000F619DC969E6C25D7FDEE3E6CDF408A7D67
:105800007B2676B027F20EF57793B3EBF78A6C130D
:105810001A7D843A94B77D46BA1BA09D3AFCF88461
:10582000BE052E4CD13526CE7DCA3B4BC53F20252B
:105830007E1D6BA56B1546683658AFD6FBD00B6F37
:10584000758AD63DF489F9DE06D80D72D03A7443D4
:1058500076C2A62EA6145CE943F3007604862F23B5
:10586000A7286F8D2B675751FE325636C61D8BAA5F
:105870006FDD413C07EEE829DE074170F6B7EA0428
:10588000D4F4E91ACAB8219405AC6F51B32E02B60C
:10589000605438A3EBB7F40BA08A4F4B3FB751DBF2
:1058A0008DAD35555C4AFCA2593414312BFFDE5DB9
:1058B000E7D97F48A211FDFA51EAD39B6096A8412F
:1058C000425DD91585B3EA85C2ACF908A485FCC947
:1058D000378DA543B1A5A87C5B2931E0781CAAF1DE
:1058E0003FA12B4527C6A62DB25C5697A565E0AC17
:1058F0008F5ABFAEBDA79015B7C77CC931C25164DE
:10590000B9A04C5602550F413E42DA74B8E613C1B5
:10591000C78FAEAD2A1937F7747F1F0BFDF164D026
:10592000FB3E6996EB3629F595B137E176F6C44230
:105930009DC80D9F6DEFF2DA2B691B259D8A79BBFF
:1059400094F33D81A0EE15D5FD6B78179BE87CAEF6
:105950005C783BE0DFB4B23E476AE5EF98C9A51D2D
:105960006D9CFB91CCEEED0065D2B9A4317870B39B
:10597000C15FFCF1FC1E551B43F4779D0F26F87E9A
:10598000D4A017AF7AB67431F320D9F24A02A344F7
:10599000962508C0810F2DA4113CA87C63BAB89548
:1059A00022B717237F87F907BBD07238E589C26613
:1059B000EF21F8B3CBA013A54E4B9A419601496B4A
:1059C0005F67DE2F24C640C92A122B5F32FBC163FA
:1059D000B0303E203101206E08BA77779B0821D77E
:1059E0002FA28FC3551EE9E9B834BFC4F23F9E56BB
:1059F00044D06D318BD6E4EB367B38CF7FC60BC6F7
:105A0000FADCAFC4B1DB5EB9C7ED36AAA56229A145
:105A10005D08B97B7F67291EDF2B3F7DCFD0B94062
:105A20009A3ACE88E2D14937296F6F08C9E29509C1
:105A30004214C289FB11F7EAA62A28E941224A0C3E
:105A400093FAA5CE6C9A5A2C4F907F165903DF21FA
:105A5000DE7994633D9002AD08834BD74B2A9BAD12
:105A600038684AE1D0727A1DC151442B098A4BB083
:105A7000950E4EAF186F0EE3BCFE211BE13123F9EA
:105A8000313C52D40163813C5E275C106A413D7712
:105A9000AF01B6699991AB0447D907DDFC1008F452
:105AA000DDB1A9D30989B4BA5F7025C9F6C561B261
:105AB0005EBEFDB67483A056ACFEAFA2E5C943EA54
:105AC000F2CCFF22932840959DCB6BD3A1C5A5AF07
:105AD000820E72F816295D925496B2B65BFF716021
:105AE0007209AA522682EB0C68497C8A74EB691908
:105AF000771E57C87316FDEA224C6940DCCD9AD058
:105B000098E3EA80F226D96EAB8DE9617279CADD3D
:105B10008C4BD2E3F8BB8C5128EDAB0095541F940D
:105B20003011C6184387D1D5D1AEA3F5FCF3A2F648
:105B30006998DADF4E5FCC4FBF38A5739D5F7475EF
:105B400060BC1DADD6892E9F61E0EC73C740A2F109
:105B50004FC5085746AC4F60A7360C8842CD882900
:105B60003EC896E6B97588844E3FA094B46BEE1C8F
:105B7000C4087D4C1ABF6000704DA918117F2F9387
:105B80005962C3FBE608A70E74356D927C5BBA338D
:105B9000EFF9B03840572FD938C5D9720FA9E9C7E6
:105BA000730591FFF6F5F82137BBD0010F0A56A611
:105BB00050E163A369D8E99D1D068C75FED381ED84
:105BC000A0326AE59DB4D1A152454630838C72B3B0
:105BD000CF193F8B32E963F34B64C6D0AB7DA0167F
:105BE000E84D4715783BD1CC11FCE90BD366385909
:105BF000A913E1007FAB1D63C58BE0A91945500EC9
:105C0000EBA777E894FA59215DD4AE80F70DFFE059
:105C1000051ACFAC97B37926BDC0BF252BC92FB9C4
:105C2000B98D244C413225CA66B156C7CF48D2DF60
:105C300055CC6F52E917C7A87811AF04370E0D2F56
:105C400027CEB221EFC4559C032404B208EF76D2CC
:105C50002014E32DBE365D7D859A23760076C3DE63
:105C600082365D392E97E3A9F03A5370248485EC8F
:105C700067F85F72F835ECBD27F146EC56C3FB4D73
:105C800039B6DEA6C4B663AA0D256A2ABEFE64AF85
:105C90000D3AF007E7E403824F0693837FEA6ABD7B
:105CA000F9B294A3684AEC73A566EBE63D36D44B93
:105CB00018BEB206A2A50DB83D56D4C1179EDF9BF3
:105CC000A4DC548D6D760685CEDA379B9B5CCABA10
:105CD0004AC5A539CC3899E443AF2B387A94B84CEF
:105CE000047339B4171033F98E8221F0A6B7D32D7F
:105CF0008E02F7A09C7F8697F7C03D795C740DD229
:105D0000CF71E93B18561F132D9B9D1CB8E30376FA
:105D1000C0D538773D6F6B4734AC9BD484203DBCF5
:105D2000DF3269B6EE8EC6212CED7730A92CCD6717
:105D3000EDE100CD37F3E2F9E3FB3324F9C5145A62
:105D4000F5005C51231511259BE604AA4FE218A02B
:105D500086E36DE0641FFF78F28D563700035989A2
:105D600040B1D6BCF17612F73099AC5F8A81F92E3A
:105D7000E106BAB1F9A852AC444C5E053A95D17E21
:105D80001ECA1E176358F4E5F5002B974B09B8D3CC
:105D9000E82B12168867417412CEAC1F57D898436F
:105DA000DEAB1E9A7331A80FD9015818F65FF3972E
:105DB000ED29CC93577886A2294F33F897097B2C8D
:105DC0000678D94FF0A341C96A313A0373F4878B3F
:105DD000FEE215D2300031B8280CAD188919E34520
:105DE000CCE0691B51CE19E45D83B32CD06EC2C9DF
:105DF0007CBEB4167B00C47DE629D15C7DAD7DCB35
:105E00008FC5FF7FFAD199484D2D3118E1D04C77DD
:105E1000EBD76BBF62042E7CFD4B3FAF2BCFBE4751
:105E2000D65883E82BC625422ADEACA9C832B46016
:105E300076A20D55EB00FF3D656842525AE4F252DE
:105E4000970D3B3E672A45D448635F1E5612F3CE3A
:105E5000237E24653C9A303B2A5DB508C704A734ED
:105E60000C084B10D0CE755C750C40880F836A26E9
:105E700090DCAC1F08AE17ED437359CECDC3321E74
:105E80001DD2A3D31B6753C9247D3A086AFBEC8556
:105E9000AB896AAF13AC4B7D9F0FE8FC65CDE13356
:105EA000280E89B510ADACAA9FD1E65BEB88C193F3
:105EB0004E2BFE66EE8B8837AE26BE8ACD32BE1DD7
:105EC0006882FD948D64A80760A725DC6D74A17FAE
:105ED000F58169F5FE914F523AC329A772757CB1DD
:105EE0004A5B874260E1F58D271C7B88317359033B
:105EF00092B4130663E8BF6DE60E3CF9C3F2996FE6
:105F0000E7047DEFE1C6CFD20C0900FB9B1BEF0E2F
:105F1000CECE5E518C900741C83482E19485B79E05
:105F20000D1FB09E9648D0056A16A31549F88290B9
:105F30009F57DBF979DDEE29BB1CDA535DF975C09B
:105F4000A2F9C19A110AE4B2498BCFF94361A36760
:105F500039C543870A392FF5BCEB2A1832708829D6
:105F600032A4DEEB0C6ABBC09A10A0B4BC2168ACB2
:105F7000D49A79F30EF850BECD9CA28109132679EC
:105F80006F68E509E0195B6E52ECE81AAB8C8FABD9
:105F90006FC4A26361BA4ED3E9CDD0C56FF176A9C3
:105FA00061359B59ED355529206A70A9230B71A6DF
:105FB000F7B072A96B15F749D9DE62021F8985FF18
:105FC000439D6682000A9967177950E27A6F78DB01
:105FD000C6A3C8BD296898ACD46C7DD93617B488DF
:105FE0002CD7C3142447D37B3C46EDDBC02B990947
:105FF000DB15DE679DE4D8B04B3529064327C98100
:10600000EC3771E867FD53205D66C2E576D36189A0
:106010002525CD1397F628F2B0D88A9B3A487D35CE
:106020009D633A8C1B79277F4DC32E76E6FF369D04
:10603000D97663B06CA6D37BF54083D5FE6524D9B1
:10604000D383B6DB14CB9160F2BB342FF75C76F2CE
:10605000827DAC2D41C95D7DD967191E1A3FC3A24F
:10606000AD7EFE1F0947EBD900A773E6A21CAE7AEE
:10607000749665E4EDB3FE8820CD4D8838A8FF48BE
:106080008E62717EF5D11ACC0210677217F201761A
:1060900064EC7259D5B592DD06E124D6F769210783
:1060A000F050BC75542FEA29DABDE9527F23DC8D0C
:1060B000D5D75F442ECDE2B70EB20B8C1BCC8D87AB
:1060C000ABCE7CD7E1DF07A50BEF04DF844BC98F94
:1060D0000BB6A539A42884ACBC742A411AD6C701D2
:1060E000451862643746EFDA4115DA61A706F3987E
:1060F0008F67B7CB8FC9BC17B0C078F1A01635BE7B
:10610000E5A12486C0010A90059AD570BDD8608AA1
:10611000CCC5A7A42A5E22CB529788B06A7D75347D
:1061200009472D5A403222DA4F09FA649A2CC48169
:10613000A5061075BC71F2F2EA895E21CB050BEB66
:10614000F4B4583180A80DE51BAA7982597FB8A113
:106150007E3C691035B7BE70123F65712984738526
:10616000696C5969DE7B1EC3CEBCA88C267FCB45EB
:10617000C2D57D40FD7E7F72409436290A0608E133
:1061800092C41E1797E0F5530E0FD16A5B9FA3B41C
:10619000F92B0AA08C6F27AC121C87A0572398B349
:1061A000D7E218FD7631BDB3BAD55438E781F3266E
:1061B000E02ACF418BA407156C4D972976D274F352
:1061C00007C0D76F2317437B6B832A667B9087EFCB
:1061D000863B16D035D11107201C777488ACEB466E
:1061E000DD3218C357AAEE39773B93A5F03AED5646
:1061F00078667E3D8590E6ADB2E0D07D22390A3EDC
:1062000084DDA75C4046ECD94D2931AFB4D6B7A6A2
:10621000191B683484B584C5DA453E7802483E626D
:10622000C736AB7E2B14119F3AB9A01FC2399769AC
:10623000CBA93C895910BF3818B9D3AF1DF412D37C
:10624000934C0E7966785B2C6A9173F26092D82039
:10625000D1792A663699213BFEEC00004BBC850BB8
:106260003F814F68DD130373CC524011468843D4FD
:10627000E3DFA3C403AF3B5B3F7F0F7BCD71037BA9
:10628000363E5605680E95545AF6BC796F2191AF8B
:106290009B4B98EA7330AED2A821396B657828F70A
:1062A0007C0089B5093FA87A341AE65EEB5580A1D7
:1062B0005D37C9001D8C0037AD7EBCE2DCAC1E3FF3
:1062C0005871A9FD7C6AAADAFB4C8F91930BE069A7
:1062D0001DF77299E26433896A308F279CE57F0746
:1062E0006BB5DA942538F43A3EA532D91707B05188
:1062F0001E816CA9769CFB817946B8F3BB539962E9
:106300008B9270BC09791367D9C7F06E8BEB8E76D0
:10631000712768EA71A7F8B6E9FCA2B8C2CBDB1A0C
:106320005586F5C79660D1D52741A3F528F9C6F85B
:10633000B3038CDF4590CC6F91DA16ABE888A5ECFF
:10634000A609DF672C9FE402BF3714ADC660A2D553
:106350001913275427E1532486820488463D98D296
:1063600012C3D586BC66BB707479E4B5414B6938FD
:10637000E80F7D2B7ED0436D77C793E9407F2E9643
:106380006ED5EE2997D1A26957EE6A927E5BAAC6B6
:106390001127B04197C3422B6C47ACEA5DECB1AF1B
:1063A00057CB81B9E5B0A29636B2F0A24C51346811
:1063B00034D361A14BD9BBCE196EADDD9EED96F500
:1063C00067516F3ABED371F9D695D23A4ACF752B41
:1063D0000E742A7AD867677B55217461EB92A61DEB
:1063E000E237C41C54ADD8731AB9E5B2B0AF96C742
:1063F000F61DD5969F6EAF31F1E53F9EBD96EB142D
:10640000EEBB726065FD41244DFEAAA3A38871E135
:1064100035E9CE7D9C0D7D0FBA1BBA4FD4977FE333
:1064200065972B9FC18D261A4C7846EABE6A2321B8
:106430005EF66BD065E6E5D5D793A4BDFED8024FD6
:106440005A08B30C15EB507CF62E08DCDE933BA902
:1064500081B5AC28BE175D8D8F28222F2A30C3FE50
:1064600058F1EAA70CEED2EF00AFA9C1DCCF8F5AEA
:10647000D84430890C3EE809E2554058AAA8EA04FD
:10648000B406E85C3F4566AA873463C4A0481E1082
:1064900064583AEEEC030F680E3CA301DA675ABD6C
:1064A000FF5EB5445AA4E5730D61F9E541A9E13BEE
:1064B00030685A22A3A5FEFACFEFD2DBE3D35760B0
:1064C00003EAA530E89429A0DBDF60DFB579FA8F15
:1064D000DE702C89B0A999E15EC52A665BF2B02016
:1064E0004C193D2D1DDC53F095701DC9B500F79D6D
:1064F00090B4A8FF8FF49CC5981C141FDA960C6604
:10650000CA144D503A289E9015FCD80C7AC407C284
:10651000C0D5927638C76B42711FB7ABE8223F8275
:10652000FF336EB6508FD2F275B5530DB5201921D9
:10653000E4C5F480FC10E1F9EBC90143CD441667D2
:10654000F864525CC8A8D2A201FF7817AF6818801F
:10655000514D6FE8DA7DB21ED7A07C19075D74A497
:106560009263FB912CEE9B47C96AA93DE6EFEA22B4
:106570009F37049604730EC3505CE0222148A31297
:10658000A0D56F4E6ACEB56BF560E02C5B08ACA46D
:10659000F5F506A0B26F78C113C3AE8976E7E8CAF5
:1065A000061157A5774821BDA1225870F783F61F21
:1065B000FC39C093E77D002A612BDE78BF6F764BF4
:1065C000CC12CE5F2D7E0DA127593A3D6F529963B3
:1065D000CE62AAAC1E7561E2A9BE8F3C8919CB318F
:1065E000C9F015A4139FAC517E3B03A0CF5FCCA490
:1065F0006EB784F687DA5A50EB80D05D5D6C8347C6
:106600004B64D12389BC7811563233A6FD96B099DC
:106610009C5261BD84B55BC7EF2C761C332DF06DA9
:10662000C23093772E10E8C01081ADEDD881B1BB98
:10663000E05143B0E339FD590CDE115F06FC6164A3
:1066400089327A49672B74D473A16F185112C5B07F
:106650001CF1546F7145C07D0A017EE547D68794D1
:106660000A0433BEEA9D728FDC3165A39CA8FBEE61
:1066700099E600E160C9345B757B2113A5A717B8C3
:10668000769456783380F7011E1AFCC39302261CB9
:10669000AC8AAF7069AF5303B5D80B0D2CEF41CD69
:1066A000D4548025F8156CF255C01A8C358A899B14
:1066B0005EB6F1961158E8CEA6F73C6A9D967F69C2
:1066C000781792227C7AA9039770435694DAE25F96
:1066D000BCF1BA50FD8D352E116FB562964E36E87D
:1066E00010863AA9955A077EE1B27822802D5DC3C3
:1066F000BBDF975F04BCFF719EBEBF9B957E984237
:10670000AA31B89C063BD2D80BC70E95828DD131E9
:106710008EF4D2878CD4FE222A58B3D168535F926C
:106720003FA792A199C1D57D0FC2B509619A6AAB05
:106730009E14D2A1F21C001AA84E9E3559C55D13B5
:10674000964FDC974BD7E6021DF5C465C7D04B4387
:106750001817B7C5308528AF84E6D255457D7894A3
:10676000BE0DDFCBB9758884401A90A127DE68ACD6
:10677000D49A7F931F50526673B4BBE918192FF354
:1067800083BAEAF8F609A6699DEE79DF9DA0945BCD
:10679000196DB607C3174B653FC595742EA5F55106
:1067A0007BCDA869F62D810E1CB6F5490D0A7FA692
:1067B000768C611B634EFB9815168C741D27BD9B50
:1067C00037A17852BB02AD787979BB727E39210945
:1067D0006C7B23AACBB0677F67DC829BABB7847EE0
:1067E000C5A1CAC46B84B74718451828F7B01B6AFF
:1067F000E011D8A6EB69FDA0BBE8EBA936445F0E1B
:10680000FB2872938A2CF3385D6DAE73FB8162E5D1
:10681000257B60269AC67DF049DFABF73BF89517DC
:10682000BE06289EF98D281AC17CB24B2A6D4D7187
:10683000C9C8992B6D11CAB81F58A8D7FCD225D941
:10684000D7E4BCD1B0C2B18013B9728ECD5D8501E1
:1068500072CAAC25BFE6598D7D2A06E6F0CBC3DEB1
:1068600058F96E5D2EF4E2A1A36F5636B3818EE225
:10687000F7C0401CF9C116DE10994058AAA09EFE30
:10688000D4FCE85C5FDF61CC72C36E828EBB0076A5
:106890009A8B0C86EEB70BD807E53FD5DFBB29DA1C
:1068A000FC8C95C55CFC847B56D4E28B6320D8EDD0
:1068B00002681F95A1A4FC9E2A30D49BAE93474347
:1068C000A4CE8C119DD00610EB7E070F0A84FE7FAC
:1068D000513DA6C9E771BA11BC742A41ADD0A509D2
:1068E000510A652543C575F49FA05DD1549672BDCC
:1068F00087B4B1738E8C8315B3716CB958790EB6A9
:1069000068794DE87CA50F29064A56C4BA5E6C32F8
:10691000C1BDA77CB3776AFF585F95D6FC913D084F
:10692000FB8269DEC354DA32E5FD3685172DECB4FF
:10693000E9EF00CD99F0F2F8C21F1E9DCB1521356D
:10694000F00C5A87E1EF1CCF5850F958B6D5F0FA41
:10695000793463305F03B51DF21D4C71140F76332B
:106960006E0AFA05D8C311074AD5A0F9FFEDFC93CA
:106970001498FF42E3C86AAA44F0184D0346FBA5E9
:1069800016911F1F551FF75BB120D649516CE5B416
:10699000F1F90EC88767DA747DA4B8C00786D8837A
:1069A000E92B1F9345A7ABD7F2285BCBE283A697D1
:1069B000EC9DC8FBC275E179732B6F2E9BD51CF241
:1069C00060A59FA74A17DBA82FC123D46C918B59D0
:1069D000B38D166630B552DF2C647414C3C1E5461E
:1069E000DC323AC355AAE9817D3B78A4F3E71C79F0
:1069F0007B26607B2765E18ED759CA3B3A7C09A18B
:106A000078B4A6C8B46B3A9979F4F468B70E4FA479
:106A10005CBA71DA3F6335ADE69B3FCB06AFBD95FF
:106A2000EFE72A49797E912E2DDCA1CD9CE3960ECD
:106A300071C4C23CEFB9F48B7961A748AC4B4ABC36
:106A400090293E13332358934AD746C452ABD87883
:106A5000CC70197F7CF2414F90654AD55E2AC10700
:106A60008D380C8A40A1625FA534D241098876D462
:106A70009268D1720D173C5B407C2610DDC306790D
:106A8000350058BC6669D28C592557A30AF031C02D
:106A9000AF33BFB8D12FAC0405DAAACA0D9408FCF5
:106AA000D7F1BEDD0838ABA954C3955A16E0C2052C
:106AB0005F0AFDDE128C7736A836BB51D0ADCD3CD7
:106AC00078A3F9FC7C6AF7DFB1186A5B6C14BC8FA1
:106AD000FD8B7960FA444E5A68A6845F5FC778B32D
:106AE00058D16F94278FF63B3BC17CBA79EB9C1B46
:106AF00036D7377D576CDA394BFA2E7E3C099268CF
:106B0000EE63BB0AF216D46E388F1C33BAB22E90E5
:106B100089F3C7319C61F8222D54AC68A05C508980
:106B20002FA990779143C0F71713A1620B4AA34294
:106B300092FFD92F24971788231EAE513C4E74C163
:106B4000A291D19732D2E7D2023F9DB43370A2D145
:106B5000E67C4777E4A02A0D33392C88C2F9D3D6D6
:106B60009E32F4CB9421BAE8B95CA19C9DBD69A486
:106B7000214C78D3F54B5246B0ED5F37D036F50651
:106B80007B25EBD1A406A6B92376686AA5C19573C7
:106B900086BBB1493D1245653773EBC709C14DFF4F
:106BA0005EAD8197DAD5A1D737BACF010C00065375
:106BB00076876A5B7A4EFA99E2D1541BECD3B69B86
:106BC00063A095856C0D7270D59A42E05BE25D6DB5
:106BD0007E7A246A2CD9A4E96FD2D808ABCAA7C59B
:106BE0002319C3176A3BCA1D082FED0BB1671C9B05
:106BF000C771C40060BBE9BAF0EC0D084291B31351
:106C0000FDF695BEE6B7F8DF544CAB8AF67770E335
:106C10002525CD1391F654F37ADFEAC47FE17C8F0A
:106C20004BF42A9E2C2C6CCFAD62C42C0A563347F1
:106C3000C35B6BDAD6D1C3580815ABF43EC004BFB2
:106C4000235CB2012E8E50DAE34704BFD3A376F261
:106C500076C2A12EBD14DD5CC74674760386532030
:106C6000A84EAF2321DFE3800A5F597FA1A58B3AAD
:106C70007D9D4916F9859F082145438888ACE2E44B
:106C8000C4D1E9C8C5D368CE75A56C16B32E03A6CA
:106C9000B7873857EE47080C9C8B614B96B051FB79
:106CA0003D28BDC5AE6FE98BA563E9C653B6DC349C
:106CB00051565B9DA0E0BD164610289CBA9547DD55
:106CC000F343A410334506A5DBA604DDB5E9F5AC16
:106CD0008EE4A4ADA0CB875C1075070F56FC157928
:106CE0002917214D1F50349C806754F2B001F32CBA
:106CF00089D2B2AE2DA799D5B7717DCD54C21A6491
:106D0000CFA04F540B5509419241F8459A3F03CA11
:106D1000CAF587C46AF76AFF7A5F85DEF0D1546EE0
:106D2000C9D26465D352F723256F34E132F7C41218
:106D3000EDE405A9B52BE2F8E9CD3A24C8C5163F24
:106D40008E6F58815F196B2AA9626E5FBBE4105089
:106D5000175A5C262A68BA1CBFAC55172EDE185F7E
:106D6000657CFB01DDCF18D4C60EE438C459FB2383
:106D7000C28F9A9AF3C653AA64549CA9F241E8A61A
:106D8000BECBE0C01E32F683D20E2FD72E03A295C3
:106D9000315D0A7020F42C84ED13BD59CEFD99BBF2
:106DA00079781E9B0214A8F74A4DD958E0E7E5F020
:106DB000EC20CDB3DEA10961632B9129D2D77B935F
:106DC000373EE5F92FAE0114683B089553F4848BE8
:106DD0008AE414D819F133DA28D977CA80E8E34570
:106DE000CD80CFFF968CEC8C518D877DDD37EF7693
:106DF000BB6B8A8E790C26B497F910036517091EB0
:106E00006FF2A674AE232E214F9F321EE0D64FA400
:106E10005DBF6EBE5563177CE7FD15A00219BFB5B7
:106E2000C4EE45532E86610313DB7108C78A960BA7
:106E300071C3C338EC02F6EE60BA378EC14548DC48
:106E40008FF5D0D66F4A58964AD047C05110DA1DF8
:106E5000D9AB85B91CFE038D0EE49518F4D5876D6A
:106E6000F2DF4AC098807A859F11418943C87AFE33
:106E70006E4B21E304C921ED92CC614BCCC9108843
:106E800030BC5DF46BB1FEA5754E5CF86BF93484D3
:106E9000AA81B09882F3AB14EB0101CD64C5140450
:106EA000900589B20886A55A5EC1E6EBF46A022114
:106EB0005F09DB008D5DF0EEAD26DE8FF788923C3A
:106EC000667FFD4E794AAAB69EC06F00709FA1C82A
:106ED000A7D0590EE464E18C4096DA33BEB07D0150
:106EE00048637E963DBAF53A6074586478EBFF1DAE
:106EF0009D349F5B3FFFF550DA4B4543FE988D0272
:106F00008FD290BCB695152CA43173E353792A6BBC
:106F10006E62D23084B0CF482784A2087416B34D75
:106F20001EA7E3C69B90FE2B021CA2250B2CF22B66
:106F300091D72A62EA40CC4FD012A553A290745543
:106F4000F45A8C2E122AE4226196831FC740A2F1C4
:106F50000D264777A8232B05F7512CA8BC78B666D9
:106F60001FA3D01B9E6DA9305277E0EC42F66D7CDA
:106F7000C60F872CDCD0536E8E924D36107F177360
:106F800090FCEBF9CC59A6B98BE2179E7B18955B68
:106F9000112FCABD73EB635A3C1DD95D0FF2DDA9F9
:106FA00072358391FAD5A9FC27D5FBF1F2D5848DF2
:106FB000718A25AE60407AC205C68DC7CFD392FDD7
:106FC0009C778D894B1570A2C72340E0A58595D08D
:106FD00091BCCA242D60778B47BC6CF9AAC8A41455
:106FE000E6C73CC38D86D47D0E4CF3B3B0E53DC5FA
:106FF000F61EDA969E642997D72D3C6C42408EC9C6
:1070000001F1B5BB75EDF0FA5D62A8830C50B13AA1
:10701000CCBBCD1B97B65590B119A08F3BF9BE17CD
:1070200097638A9DE88D251AC479762E8FDE3A778C
:1070300073C32BE02D2B3FAF3912A9B2F5BB2DD96D
:10704000E7354CD601C5566C34F724EBDB52892565
:107050003BAEAE2D8646A3C0DED703765059C3FEA5
:1070600053296E7DEEA7E389F4BF56165CCB8BAA3D
:10707000890B567AF938F4F92095A684547FC8D440
:10708000C669F58CCCD87F3C29A17FCEBA2D0B7474
:10709000625D103CEF01080CAE8D51BE5E85536BF6
:1070A000F53BBC73589800315DBEF08040F31C8402
:1070B000E6935B9CA2E1F54606F0D227384BB287F7
:1070C000EF49A77C2F1775A0E8A6DB181699FA8F51
:1070D0007FA1A4314F7284AC1BEF2B498301B84EC2
:1070E0003920192217E95BF7A070A2E15813F53D8A
:1070F000B2938D37B5349113B6C26A11D1A30794F8
:10710000B1FB4CEA0FA548A40597C2ECB696FCD299
:10711000C5159CEDC76810A54EFD87D706F64ED164
:1071200003AF9272C2445A4027963E177D01F58FF5
:10713000EC5C02ED877D49AFEE100334CB151B37B5
:107140000D2966D4DB9B119CD8E870EF4370188042
:10715000F5276DC0784BB07E56B256175D9B79E22D
:1071600079DAFCDFDC7A22B130DBE5E0C287E03996
:10717000151EAD03F8AF63CDBA93582C7D0BF85CA8
:10718000E6EB1C776B7AE23BF188D04249FAA0BD6E
:10719000EDBC04B09DDF2D1C62CF2B7B0BBF9A93FF
:1071A00021A702476A3C3FDDE6D95EC8EF51094D91
:1071B000E0E9CC43CC1576A2CD4FDFF89509734BAF
:1071C0000A12D5F70B7F5FDA90E4FABA6B928C8BD8
:1071D0000AE212B8315921D6292C75C48185E645B9
:1071E000C5AD2FE28908ED39676EB55C0FE8EC8616
:1071F000C49490E66B98A7C5C4E0F2AD7681031FF6
:107200005CF2B775A12328405ADD23A6E2970CA7AC
:107210005EDA116268FF2213F2DD29760BE7A64CD5
:107220003FCFB08E29C6E1403A42A497CB32F867EF
:1072300062EFE988E9D19F8575255B8FE3F32ED254
:1072400087B7791164F23AFA59FC047054C387760F
:10725000CC34A2D174D001550ECB0AE1089AE36F69
:1072600007404AE2C2D239D93385807F0D8B87012E
:107270004202B2EE097FDB56AC392133E0CE1378FF
:10728000CD215D0197BF9C385D2E4A516FF9138463
:10729000AE839F98879E267E9E0C07FD6CCEC1D242
:1072A000D5ABC0901E7CACA26731CE321155CBAAB3
:1072B00078D602B15A83CCBF97369902B8FFB73D52
:1072C000D8471B14786A92DDFA24496B081CA12464
:1072D000B5B299CA1E29523B4F54A52E441F84674C
:1072E0007C0C1CC4406CEEE55E7478593258BD616C
:1072F0006611A03562F4BF461FFAC5C1311B62BDDD
:10730000AABDC0E6E6A6D74CAA2365A78383AA56E2
:107310008EAB9E5069C2F89651BE5A259AECB8279A
:10732000F49E98C5966191CD0A7BA805672582AE2B
:10733000694FDC0FDF1BCB27401CA508152C94D709
:107340005EB4D54718DA1EDBB97DCC536576A2D181
:1073500049AC4757CBF32B2573392C88626D8829AC
:107360000E3EDA8D8D69B8336F1FA864AA276A4C68
:10737000C50F7F2B80D64206301F7BCF188F262368
:1073800064B13620F009A1692FEA98428D55C68371
:10739000FFF4B6924BEF433A1C0D03F6297DC87EED
:1073A0007E0586F35505BAC3B78BB8591D7872862A
:1073B000BB5264C34A29FBC80C9B8CE51EA597FDF4
:1073C0009BD36A7A2FDD71A0A6D043E05C8207D5FB
:1073D0007B7B2DAA19B7967B4D6454D1BACEA97880
:1073E0004CE7822D11F5FB0116995D05A0BEE24E1A
:1073F000B9CEB0589060D69FFAED37BEDD988BC8F5
:10740000F64075B039F4F1F85BB3FE5DF38779317E
:1074100034A4BD866A757CDEC08D96F13B4D49E390
:10742000B711225C394126C36A54577FC90F3045D2
:10743000625A0E8C4843A324F7C258258E4D21EA88
:107440007207B30116CB6362577724CE3B07549A79
:1074500036282C0AB6E3595DC122F1A8F156C42E94
:107460004EF9677D2467895002AF364283498B828B
:10747000576E4015F057EED94B9B70025F76E234A1
:107480008C0208DEEA85C1904298AE30107A210A5B
:107490008508C753EE471BD4CAA65CD693EDF48F7C
:1074A000F7385D6752FCA27A526CC53F4323DE8DEC
:1074B00019D09B53434DF440861056735AE6473A11
:1074C000A59CE0CE3D890DA4E3DA4CBC55FBFBAF97
:1074D0000EB015DE28BB848C83BB2A6187E7A50923
:1074E00014EF2B2D03A2D3C04A576D2FA06AD72FBC
:1074F000C2C3394477ABBBCBB3A938611C9D0C32F6
:107500008A0C4C450D858E4D1507C83C814603C23B
:10751000C76D25F32BA66A0614AE468188463C2823
:107520008B3D6D66B3C5C14EC631373993DCEC8DEA
:10753000ED5D25ECD828D2AD16AEFBFECACD0E1FF0
:1075400055EA5884A1C60D05D938D861B5840CA276
:10755000715A45D8DBBC48C3F9C47615791F7CE263
:107560002DA400662FA61ABF96142865C7B9798E78
:10757000C0FAF991287236F934D9B9A3F24148A377
:10758000470C1E3713E0F553BDC0D14A3B9FA4D929
:10759000F148AA2E88BF2E5DB79AD82EB869384C0C
:1075A000CC211F9B1B05D942CAD75CC8F714F4FE37
:1075B000EC70CC4BC455FB76109493F193F87FF3A9
:1075C00006CF1CC92D7F009D7BAE2345AB82865B19
:1075D000C13515D0CF9474B6288476CCB9E8B628D6
:1075E000CD34079B5516F5C933D575EED866ECAE8C
:1075F0006F4738BF7B05EB7DD6E1D7AD7DC91E1641
:107600007AB20B2DD8B53599CAF1376FE0D25BA7A6
:107610005DBA9D7B78B2A7C2897C56260311BE4D08
:1076200099CEB3892A1E9D6E28D7AD3E08C3D5D109
:1076300073A2575582597F3948481A5F9CFB265DD3
:1076400069B73A106F221307894746A0D1CEF2F0EE
:1076500054CBAB483C4871856E6AB442BFDB867C34
:1076600039684B30AB1E12F54530425026D3F3B487
:10767000622FA2A3687753DA94FD211BCA3113CF7E
:1076800021B45DB400DFA18419FA7E61C3A8317C06
:10769000B47A1F39B437AED597054A2EA5E9092427
:1076A00081DCA0ED80EAAE5B37996739C1A6ADE217
:1076B0005E6EBBBE3905AAE6A806BCE5CBAFBF8DA2
:1076C0001071F1945B66ACC737296B0B6DECA37F2F
:1076D0005580B168CEE54D821F8BA8E7DEAF812DC6
:1076E00040D47B94DA1EBCAE021379D24DE6749B73
:1076F00016EEB0AA769DB6721EFABE4B14D7B13AFA
:10770000E133462109A8DCD18D413195AA8DCF877F
:10771000AB2DBF6B0102FF66188A9ADE9554A993C0
:107720005C9192C7FE112F686E435D4858F3A2F634
:10773000C865DAFFBA6BCC273488A452544F3D5643
:10774000660FDE9719D7E06E61B03372C671A1B9CA
:107750001873438A6BB33BB8D9142C8842C988612B
:107760000E3EDE3B39BEBDC1271FAC6472276CE400
:10777000C50E78AB1F09123EE644FA4800E22F031B
:107780001443EAF9E49CAAD5146D694A8175B43DA5
:10779000CEE8F03B458F48F3C3C23B7329AD20765A
:1077A000421F86999575AE2EE56C0F269ED864CB48
:1077B000768C9C7C7AF2EA044C098CC55825692A9F
:1077C000A27D5C3EBFD754F0E02C4FE0120250592E
:1077D0009ADB1F126928521545B5486FA01ADFC8F9
:1077E0000DC7833658EDD2CE12FCEE6EF50B109914
:1077F000F2A7BD00AF0A2EB75F303C6F7227801929
:1078000094FB7266982DCD38BDCBAA8BF67731DF0D
:10781000A5EE2DBB960E7D07974898C53B40787521
:10782000FD3BEA0EF8B926C26F54B02733285E97A5
:107830009EF26BD07AE626280A1DA30FFED8144EBE
:10784000F70BB20912EB54B4FCDA0C72CD3B76AAFA
:10785000747AAADC9846045CCC22D1A90196C12E88
:10786000B4FCCBDD2377C3D103A751E78644EBD229
:1078700037A280869861EB0122B66708752FE82C45
:10788000C09114AB720D61C4D054D365B02E03A661
:10789000CD86385AEC678D06A2F55B06A06751FBD2
:1078A000FB2ABDC50823E8A36AA7E9E6433BD93D07
:1078B000689B7AF8C34FFD2208C1F723531453483D
:1078C000A9BCBB79C9D00F04141D6401AE34DAB26F
:1078D00046BDA411B45D814C43ABD6B6E64DD4BCD5
:1078E00004AAC79E11706F25B38134A1B26BF67DD7
:1078F000CB7AA41405446E1707D3ED1B54324C3ECB
:10790000CBA84E10183C43F3443ACADCE657CAE20F
:1079100085A5A57C3B766DF639AF8B06A1F9DC51C8
:10792000FB3A699688501602DBB885EFC7B1CBBA2F
:107930001082AAC3CCB5F2DA2B691B25BBCA15EF9E
:10794000D59458E9D4EC15F5AEE587E867C81880FA
:107950007A546BC1A13BB71F33FD56175D6974A400
:107960003DB3FBB1DF1317D64F5CAF3807BDF8232B
:10797000B138F861A9A153AB54D1199D0A97792C5C
:10798000BFCADF4774EEF63B0A0728914B0AB228BC
:10799000A1420A70D9AD2DAC0259B91145BF19C326
:1079A000E827184BAE89A9DFAA455CE8B78EF396A5
:1079B000FCBCC92BCDA487F19A1D84F89461804C3E
:1079C000D915DD9F3DE341EA3B3C23653B88865B5F
:1079D00049AF110010D8DC09AB0788135EC5FA283F
:1079E000DB5807824272EC3913BBB57A5667C3C0C5
:1079F00000A995E703311D5A1532A55CC540F0C1B9
:107A0000C5D9A07C50839709654B25AEEC76B37041
:107A1000EAD143DA6C63170A1EFA8FA42A71AA44CA
:107A2000F32E685987CD909E210F5413CC323660C7
:107A300074738888E0D14B849D251AAF51624B2422
:107A40006F333B11362D5A2439F4477056C30F71EA
:107A5000CDC5A9B89CCC213B073E6AC7058A81BD2C
:107A60005CDA4BE8D9337BADCB82D87A085BA30DC7
:107A70006E092EAEF778B550CC392013CA1179A310
:107A800034B45FD4E760AC5458F6F07A6EF138A4A1
:107A9000FE55D43A4730AFF4EE0A030D9D5A08F470
:107AA00027D61F680888AC7AF818E08B0D883F64E9
:107AB0001762A80B115886BE8190B545DEA942EA2F
:107AC000E7CBFD4C734A55D03AA9835B6C15DD8F2B
:107AD00011815130E5944382198CA87859137ABFEB
:107AE00026F615B5CEFF9DD77C7D7DF22F3354331E
:107AF000DA84ADAADB3C1D96234C334197AA9D6ADC
:107B0000A732647B5E06D1B655A406F1AB8DF53F76
:107B1000752782E889682A672C3CD0626A530190F5
:107B20002AC16D10239DD52503CF96BC05FCEAA67E
:107B30003A17765F56EF34D24C47F65B5CBFD8D528
:107B40001BEE77EF0B025EF16A88C163CEB0600A6C
:107B500019AB46A7A74399E282E67E5240EDA059B1
:107B6000B36CB6B1CE6DBF303917B34406F6757C31
:107B7000DBCFD1531B00F19D7045BE3863A506785D
:107B8000675C4359CC6FAD6941E9C5E28785978B46
:107B9000C72124A6E92F070BADE6C2AD2A7DBE7B27
:107BA0007C15AF43F725AB2ECB6B7936235271860C
:107BB0005156CC0BC8EFF259E1D10C1DDFBD060CBC
:107BC00066707588BED259F0AF826AB85C5A72FA94
:107BD000532B42226C54A7E92DE47B01AB398A4533
:107BE000C49FC01CDFACD37B13991103F0BE1F49A7
:107BF0002FCF78C69BBCBFBBF6FF3D6E36308AE107
:107C0000AE2973608ABF0E2F9CBFA2EF93DF70E98D
:107C1000248DCDCBDBDF7B262BC5A99F5B1879ECB0
:107C2000BC0522CCDD3B2C167F3856579EF0324DDA
:107C300036BD6BD86C16C9A80E14ABF4EE45046FB4
:107C4000E08A4DD6B3C753BCFEFB7C6FDB5370227A
:107C5000BFA8AC2DBDC6FB85CC9B07764806C99650
:107C6000A6276F2F2EB6E2D906AE1743A3148D5A5E
:107C70002A444115F057EED9509C41585DA73EF972
:107C8000D4FCE85C9FDF61CC26B36EA288BB007693
:107C900064EC19368FEF0BD41EA57FB0F2E6938506
:107CA000F51A5C9D484FA89B7FBD60C5031BDA5F3A
:107CB0007168514408CD9C721E58D64219BE1608F0
:107CC00023042572D52300A5101DA2008DC4FBAF8F
:107CD0004EB5BFD9F1E504C40395AB037867A32182
:107CE000FFADBB9B2F3D339CB1D85F21D2DA9F4BB8
:107CF000CA8AB3AEFDA592D5DFA77C215F1161BF13
:107D000036769B390A5503411A41C81C4781291E02
:107D1000C7D5A67312326BD7ACB987D6D42E3C0820
:107D2000FB3267B6408ED60236FAC8E698F0C1BE7E
:107D30008D0D0515BDD9F22A50A11DF5C2181F875A
:107D400034ED5288A13D15F419697337DBBD1DC8A8
:107D5000783D4DD06139B9CE53725016640E7F54C0
:107D60005A62EB2C8C7412D72E1CA9393678D84D58
:107D7000E134CD27D9BB49E3444C160511F0DC347E
:107D8000DAF71F1F751FF75BD120D14A534AFAF566
:107D900001D0F570C1F725EC12C644891FF6ACEF8F
:107DA000653732E77717E9E37AFE9CE6BFC1A1A801
:107DB000F6693CDEECAFFA53431413C1572FBBB541
:107DC0000D97EFEB242668BE7773D3F833DA86532A
:107DD000B3CA55EE6941201E37DC2F84D150ED1C0B
:107DE000FA44269A7C6ACD339C19A93C00AAEC86F9
:107DF00090B890E6172FE68DA77CD53B7C7D0BC60F
:107E0000C6DAA7AC7F0B3399B2F5317F47BE4E7708
:107E1000C3D661D0193A3513E0DC3EAF1BC8BE486B
:107E2000C6CE935EDCCEF1C62BD7A03FC9EA9549FA
:107E30008CA5FD509B9CF78B5E606A12B12C4A0C9E
:107E400087BF3D78662212744C61BCA7B3CDDD7844
:107E5000A375576FA743FF8A29E35A4210D5876D50
:107E60001D955B89D0C333FDCB82327DF15CF50D6E
:107E70009DDEABA36A73C15CA77C2D7FEC99127069
:107E80003D4459D49965A754A3F15E7D6FF13875CF
:107E900062AD3929ABF78F849ED50BD060CE42F40A
:107EA000D7D11F681815AC8A0FCEE65B6075C1B3D9
:107EB0004E2BE10A7104ABE6B007BC824A73A855A9
:107EC000794BFC4D6B4AA85E9FA05DDE6C1DC12FF7
:107ED000EDB85979AEE65E3BC2F4AB364F1F84670E
:107EE000070A8742D8E0F58DC7A270DB7CEB6D1FD7
:107EF000635B69828A4B238E3601BEC23BA7D34B9C
:107F0000DE58B0D67C96D3D7834530E2923B848B43
:107F10005237D613D96FF896DDE3A2B8AC9EB74EB0
:107F2000A4E390C76250D1F51287A9BC08FCEAA669
:107F3000B65652ABBD9F82932375A552DD1472A530
:107F4000A8F1DF4714DAE2DB40E1CC7339B78A08E5
:107F5000093E47775BEC2B2593262C8852788E615F
:107F60005FF3CFE29B94BBC12F4FA664B225975B12
:107F7000C9D4842C82D743F3204ABBE800EA2B45BE
:107F80006908A2A1F001AC48743521128485B44A75
:107F9000A6AAB6B1C658430F3DE53E7AA672CC3CC0
:107FA00029CA8199E5B0A19677EBFAF800F37457E6
:107FB00037DC667B86F3054EF5DC8B15EF696A2AA4
:107FC000147F6E53F5D27A70D598527D0A5D750B89
:107FD0007D132B33AC6A761844F5086EABCAA675D0
:107FE000EFADD25CD1755A5B112AFC9B80D91CB9CC
:107FF000F617D6069B04242EF9CB3E9B4128CA894E
:10800000FD4F3220EA4DF1D85D63A8E3D0A6168477
:108010008ED522F6946E7DF7B148393F4B2F7DA562
:10802000C9272A9CC87E251A9878ABA09727CD9A95
:10803000D3707CB4787EE338E1A3AAD4B6808CEF09
:108040001F039267071A0DAC0CFC9D6ADB53D6B276
:108050005614B82CB206A68A542A23101457E3EEFD
:108060005CF1E3A50ED1F78834BFADC12BCCF796F8
:10807000729F202803E66BD15744E065AEA095FCC3
:10808000C561E3AC0C09651C777A7E3FD752015E6F
:108090009C45385ABFB80BDC07541DF4F24C50D93C
:1080A000FDF8BDC7180CF8C01A9EA9CC0A1F11CF45
:1080B0001B07A9676372FC080F1ED56F016097D27A
:1080C000A36EB473CDF20FC69BAD04FFCACCF9C941
:1080D0002283A518B01C853D411A29D063CC5B29A9
:1080E0001A8A214C0B505BFADCE6478D5809D2DD29
:1080F0008AD8928EA608D129BBC98A8A35A70C35A1
:10810000EBA341E12833F1463642A07A42814C1A72
:10811000C663CDCA0AC99020697786D6FCB14C9552
:10812000FC5A6D3CC258D2D220EE5F57BCFCD80D31
:108130000B92039CD44EF92AE4A6FAE2E2B1C828D5
:1081400035A4588180A05AF596593552BBCD188078
:10815000B7A8AE1CE3B0B23EEE3816362D0F74351C
:108160006C0DF3B3B51D1807CBD7B5A4367871B332
:10817000CC390747D3C852224E94542F0D96F9F6A6
:10818000AE0B1F1363ECE42FD0B2D2BA8B2A628DF0
:10819000F8DDFAEDED91098249F066EB4FB56B60C1
:1081A000694BDE09D335452C8ABEAD0F1014E2FAB7
:1081B0002D00C1608B83798F5A4BA5DAA56F5AFDCC
:1081C0002FA8D74F0EA469AC61E3CBBC13B3866272
:1081D000B65C01D230B8DB0991034FA29D08EE478F
:1081E000CF89D515E6C1DF5F528D9D1AFAE72E7C47
:1081F000822B90C61F2BE68D277C45CD91110A144A
:108200007A8B871ABA033B93254B30F61F6F27579B
:10821000530A7BBE9F0B3739EFFDC6A6E67FAE47FC
:108220002257439621C66347CBB7B4CD2A8B54A1BE
:1082300078A22F513569E75984D1AA97EBF3ACD5D1
:108240004C422B13B94BFA3C43B1A7A98E7BCBAA66
:1082500001C038A03648DB84D7535ADD9BB307757D
:1082600007D09E3902AB6BAF143B30B9045BB50F3E
:108270005EB6B271DEC65F93B674E9CA00A9037A2E
:10828000E0DD0C1C62696F8D974E4CA3B898716C41
:10829000A15B0DB16F9FBFD64F6C33156F1FBE2D05
:1082A0001F6983B7C7E18CB255115682D43FCBB159
:1082B00093D7E97E1B8C0037BEF4703BFDC9B4ED4B
:1082C000DDCE462C62B8626E8F6061D3F3C4507FFE
:1082D000EDD3B101E6964582D38F1A5F4F75B9D9B8
:1082E00079C37045B6E1E58FFE1CBD6A70EBD31A09
:1082F0005AE5BA5A769EFF72322DB54BBCD38DD259
:108300008F3AEDB4E55E7DB690A7BD9B82E9C8DEED
:10831000AEE0DCE3F2B942FE39EEA031A494BD9E9A
:108320004118F8A1971ED1F5FD1BB525373CB2F4D5
:10833000232EDC774098C6902C1F163A5FC78EA27A
:10834000A3F631800208556B476836A438BEAAD31D
:10835000B7CA45DFF134D1FB64F12A38455D80B9F5
:10836000171BDC5B9FD5BF706BAFA1B5289871DA86
:108370009D594FF9855E8A380447A1BF49282B21B2
:10838000F43632AEF10BAE326E654940DFD50D0BDF
:10839000ECF969315BD61A525C145AFC44CBC4F335
:1083A0007AC4D8CBA52732ACEFE161F01451E13BA0
:1083B0001FEA69F52B3513CF7560C59AF7E29F74F4
:1083C000EAF80205D6B478FA7F1242E05BE27381E4
:1083D000161D2223266C76074E9D712EC8A9AD3A34
:1083E000B5FFD260186113E911F9FDD3004D76FF96
:1083F000A649A967564C6D0461B3376C1322CBF1C3
:1084000078B4F0089C8A9B9E8C3DD78121A720825E
:108410004F1ADF449C0527953920370D7CE800EC86
:10842000CC666BDDCB5A5DA355C31C144CBE20FF3C
:1084300014CCFA8710141158A6A9C1B22C8F5EDC97
:108440005E6B3B9391BB440DFFA117EAA651A4D2EA
:108450002511A4A7EC4E3F3E5CCA91E4C2F6D34C72
:10846000CB4D371EEFF6EC3819C91C75377289C829
:108470007F14914C85333A29732648D2472EE02742
:108480009E0261444342656D0C106628E1777D745D
:10849000B67C6939E73D99855D36D6EE7A2B107A40
:1084A000F089E1AF0C4FACE15608B885C261D3EC5E
:1084B000180E5A24A19D944C0E69DD4832325D6934
:1084C000AA6BFE73C4FF569DCABE44E375CBFB1F67
:1084D0002BED55EADBCBDCD63EAAE34133F73D7BFF
:1084E0000E7870275798DA68F8E8DC50ADB22D772F
:1084F000F7D16A5ED61FFA73AC9A767D3EA2DF5E34
:1085000059338F414B3E53F2C4D8D47AAA3060A17C
:10851000C746B0146AC36BAFDAA7AA26AD203529C7
:10852000DA921064D171B4821A0656708B476F9339
:10853000BB75A2BD8741135AB459FC64F1AC34AD8C
:10854000D71562E8C16F76B7E152DA751A4CFE01B1
:108550009B7E4A837563BEEEF2ADBE401866D4C7FB
:1085600058D49BF25B7BD2F7AEAE1D39E64FEDB32C
:1085700031C2F94111F9A26C62E47B551E2E983D7F
:10858000AC73BE56725755F3E16831EA44B242F417
:10859000912B2A32870F0D0D1F74DDD84B06F8D1B1
:1085A00022CFBED971EF097E5879BD8AC4C22D5140
:1085B0000CF9CC63288506A1AF6D93F993287B9BBA
:1085C00013EFDD9F095F41CA5F1223652FB3865BFE
:1085D000E51B15D0552021DE5CFD77C40D39E24541
:1085E00059112FC2E13FED39B2CAB57C3E16ECA657
:1085F000A29790E66F2BE68DF3CFD05D935C0B16C0
:108600006BD0A75C00DC3949295F30879414498F0F
:10861000001C6BBC6865373AC53B3E7F02B2716592
:10862000C733A2AF7B2291BE2A8ABDEC71C994994F
:10863000F2910AA96BEA537B25EF01AFF1B6D09C0A
:10864000F72B3A999CF5C1F9406141715630247F6E
:108650005174682A16902DAF623A02BC56B3C755C2
:108660006D024B69D913A972DDDA040D173F25D7C6
:1086700090565EA498719FE9A7550111CD481C1032
:10868000CF6338D97CBBA4DD534EA676342C31742D
:10869000A0E1B16BB8CF238E960903F4EE9D48C8D4
:1086A0001C938DBDFE7BBCF65EC9E6A20703DB23EF
:1086B0004E23FFB672845029BE46BC721DBFBE3D1C
:1086C0009807FD44422F2D979F746BB76DA9A3CBDC
:1086D000FE657E68C6B50F71B581E7EAA17F644289
:1086E00058BA7AB46500E58F531371D2F5E435A515
:1086F0005B25B3EF799D0386694217F937FB920238
:10870000E604B114F70FBED8C5FF81529A83A73192
:10871000075897938CF0C80B2D842286D02573EFD1
:1087200037A9D4676087D1D522D2A3F5FEF3A2F68C
:10873000E265DAFF82DAC8292C1CAD70A29862A823
:1087400066BBE24F36F8A6030983DF1A8758E0D3E9
:108750000BCA4E87503C3A4DED506C9843B5995931
:108760005EF38EBBDC64B6A892C8B66A29987924F9
:108770004C6D740A1560526274B59BEA1716D5F4F5
:108780008BBDD264F16086BB542493955A59ACC614
:10879000E828F4B9791A43232CB5C38D5DA3DCA175
:1087A00019D5819985B0206E32D5FF97186454573A
:1087B0001EEA9A7CAFF49AB83C04E5A3D765B122CF
:1087C00077A25A34D7B48B772F9942E85DA3446DD2
:1087D00073793E6B040E9DACB4687801AF3A8E732A
:1087E000DDA1E372A78A31A718D99D46002BB709EE
:1087F0009616C4EE65BBE6BBF9EB0B4D4440BBAF30
:1088000001F1C7BC5EB8D1FA790ABA0B0950EF3D45
:10881000317EEE728E8E872129C4E69E2BC0815256
:1088200006D82DFAF15B0643A706481AE7F319BFED
:108830001EAA0BBB282FEB1EF5C8835DA0C00D6FD1
:10884000328D928910B7EDDEFCDA44B0B2355E9419
:108850007FA270F3FE144DD4AE94F9A1AF8AC3F693
:10886000B7D6461B4EA7838B10265FC620CBEBAD39
:108870007AF7003BF04DC2B9C26DC0615475C0AD0E
:10888000CDB190A3E440915132C2677237F0607469
:1088900074D5103CE6676503F3925FF633A951DBAC
:1088A0001D28BDC5489CE883B2CCE8CE33B65ECD6A
:1088B000180E5B24A2A1FF9A0580D04E7E6D7741F1
:1088C0008B2A5BC79E0C03C3FCA26EB9B4F0EB0FFE
:1088D000AE4CF5B9A5C5C424D30B246013F258F6E9
:1088E0005FA725F47DC68B5BA0EEA0FDB4F19711C8
:1088F0008AF331479C7EF873BE1140A63DE6000F17
:108900008B8E459C0DE5EAB945A3C91EBCDF0A1252
:10891000F5DAA23C5A324391797FC708E823556EB5
:10892000CB5464B6E48F22E5D0603731C30ECCD28D
:10893000CD95043D5458F3D297EC2949F9A814E792
:10894000CF445889E53EEAFDD2C8583512D5B89AC9
:1089500083EB911B090D921CB2BC7671D7D9825F53
:1089600045D4BBB0FC63EE00D9D1A989E38591451C
:10897000E14FF119F8FE3ACD0D1C5DA50597F55FA5
:1089800096ADE1C0903431C1D1BEED467BF8C289CD
:10899000B34C4213098E36C550CE9D604E6E724D5B
:1089A000495005F23B78A1A3BB68BCE0A7B8F2949C
:1089B000EDA0C593137B7A3C7B4FBA9FB76F814C78
:1089C000FA15DD97DA8E61C8425503039145388068
:1089D00077FD19B8110308B808C48D1366C3E24DBA
:1089E00024C027AA751CC45F53F34FAB5FEC5B61D7
:1089F00054D09936A8D0E5E495EBF0444D1B02C65F
:108A0000C2DCDBE122DD39492D3D31AFF0C64887BC
:108A1000B47A6A9468F73272E62C3F2F7F16776536
:108A2000469E975E74C9914EDF07B452BDC094B99B
:108A300062E7C8E0AA59F75260481A8EA073150D74
:108A40005E0A7AB165E25B250831411917B3D9A9ED
:108A5000DDF9A2B9BD38018D1FE14A0F790297F007
:108A600079224AE05AE17B8DBDC757CD19E65A8E6F
:108A7000F986A37A0E5F3D83B85581BBCCC91288B5
:108A8000758AFCA41824840C5E2F565064981165D6
:108A9000E2D1B261AC0FAFDC9DF4F8DABC1108FC96
:108AA000DEF141B5A828DC37FF69E653EFA7818DD9
:108AB000DE2C59C611545C1FACF6D402FDFF40EA0F
:108AC0001DCAFD944B62D89AEB526B033C12A17FF6
:108AD000CD44FCF8E6B04DE649E2AB834D1F75B1DD
