:020000040800F2
:1030000020500020E98E01087D1701087F17010874
:1030100000000000000000000000000000000000B0
:1030200000000000000000000000000099170108E7
:1030300000000000000000009B1701089D17010818
:10304000FC8E0108FC8E0108FC8E0108FC8E010834
:10305000FC8E0108FC8E0108FC8E0108FC8E010824
:10306000FC8E0108FC8E0108FC8E0108AF170108D8
:10307000FC8E0108FC8E0108FC8E0108FC8E010804
:10308000FC8E0108FC8E0108FC8E0108FC8E0108F4
:10309000FC8E0108FC8E0108FC8E0108FC8E0108E4
:1030A000FC8E0108FC8E0108FC8E0108A5170108A2
:1030B000AD170108FC8E0108FC8E0108000000001D
:1030C000094B10B598420AD180200121800004F0FC
:1030D00031F880200021800004F02CF810BD372149
:1030E00002480EF06BFBF9E7002401401AB2010818
:1030F0002A4B70B505000C00984203D05321284894
:103100000EF05CFB2268002A09D0182A03D8254B50
:10311000D340DB0703D4542121480EF04FFB237921
:10312000012B03D955211E480EF048FBA2681E4B07
:103130001A4203D056211A480EF040FBE368C02221
:103140001900914307D080225200934203D05721A7
:1031500013480EF033FB20222369934303D05821F8
:103160000F480EF02BFB04226369934303D05921CF
:103170000B480EF023FBEA680C4BA1681A40236849
:103180000B43E1680B4321690B4361690B432179D0
:1031900049030B431343EB6070BDC046002401405C
:1031A0001AB2010800010101FFF3FFFF03D2FFFF84
:1031B0000023036003718360C36003614361704750
:1031C0000C4B70B504000D00984203D09B210A48B7
:1031D0000EF0F4FA012D08D99C2107480EF0EEFA02
:1031E0000123A2681343A36070BD002DF8D1022310
:1031F000A268F7E7002401401AB201080F4B70B52E
:1032000004000D001600984203D0B9210C480EF0BE
:10321000D5FAAB0003D0BA2109480EF0CFFA012E3F
:1032200007D9BB2106480EF0C9FA23692B43236155
:1032300070BD002EF9D12369AB43F8E700240140AB
:103240001AB201080D4B70B504000D00984203D06E
:10325000F1210B480EF0B2FA012D09D9F2210848EC
:103260000EF0ACFA8023E2681B021343E36070BDEA
:10327000002DF7D1E368034A1340F7E7002401402B
:103280001AB20108FF7FFFFF0E4B70B504000D005E
:10329000984204D014210C48FF310EF08FFA012D12
:1032A0000AD98A21084849000EF088FA8023E2688A
:1032B000DB011343E36070BD002DF7D1E368034ADF
:1032C0001340F7E7002401401AB20108FFBFFFFFD7
:1032D0000E4B70B504000D00984204D048210C48F4
:1032E000FF310EF06BFA012D0AD9A42108484900DC
:1032F0000EF064FA8023E2681B041343E36070BDA0
:10330000002DF7D1E368034A1340F7E7002401409A
:103310001AB20108FFFF7FFFF8B50F4B05000C0044
:103320001600984204D064210C48FF310EF046FA92
:1033300080277F01BC4204D3B221084849000EF027
:103340003DFABE4204D366210448FF310EF036FA3E
:10335000240434432C62F8BD002401401AB2010851
:10336000184B70B505000C00984204D08E21164809
:10337000FF310EF023FA2300144A134014421AD0EE
:1033800080225205934216D080229205934212D099
:10339000C022920593420ED080220D4BD2052340CD
:1033A000934208D09023DB059C4204D0C7210648F5
:1033B00049000EF003FAEB68064A13401C43EC6028
:1033C00070BDC046002401401AB20108FFFFFFF3A0
:1033D000FFFFFFFBFFFFFF830E4B70B504000D00E6
:1033E000984204D0A8210C48FF310EF0E7F9012DD6
:1033F0000AD9D421084849000EF0E0F98023E26898
:10340000DB031343E36070BD002DF7D1E368034A8B
:103410001340F7E7002401401AB20108FFFFBFFF85
:1034200010B50A4C01280AD9DC210948FF310EF0F9
:10343000C5F9802322681B041343236010BD0028B4
:10344000F7D12368034A1340F7E7C0460827014035
:103450001AB20108FFFF7FFF10B50A4C01280AD9F4
:10346000F921094849000EF0A9F980232268DB03FD
:103470001343236010BD0028F7D12368034A13408B
:10348000F7E7C046082701401AB20108FFFFBFFF57
:1034900010B5094C012809D9084809490EF08EF9E0
:1034A000802322685B041343236010BD0028F7D1FA
:1034B0002368044A1340F7E7082701401AB20108BD
:1034C00009020000FFFFFFFE0F4B70B504000E0065
:1034D0001500984204D09A210C4889000EF06EF92C
:1034E0000B4A731E934203D908480A490EF066F945
:1034F000072D03D9054808490EF060F9A36A334344
:10350000A362656170BDC046002401401AB2010883
:10351000FEFF0700690200006A0200000D4B70B553
:1035200004000D00984203D00B480C490EF046F9F8
:10353000012D09D908480A490EF040F98023E268B4
:103540009B011343E36070BD002DF7D1E368054A8A
:103550001340F7E7002401401AB201088602000078
:1035600087020000FFDFFFFF0D4B70B504000D0068
:10357000984203D00B480C490EF020F9012D09D9CF
:1035800008480A490EF01AF98023E2685B021343E7
:10359000E36070BD002DF7D1E368054A1340F7E7FB
:1035A000002401401AB20108A2020000A302000098
:1035B000FFFFFEFF0E4B70B504000D00984203D0D4
:1035C0000C480D490EF0FAF8012D0AD9AF2109482F
:1035D00089000EF0F3F88023E2685B011343E36097
:1035E00070BD002DF7D1E368044A1340F7E7C046E9
:1035F000002401401AB20108BB020000FFEFFFFFE8
:103600000D4B10B50400984203D00C480C490EF045
:10361000D5F88023A2681B061343A360F0231B0286
:10362000013BA268002B01D0002AF9DB0020A3682F
:10363000834200DB206C10BD002401401AB2010857
:10364000D6020000064B10B50400984203D005488E
:1036500005490EF0B3F81023A2681343A36010BD10
:10366000002401401AB20108F9020000074B10B50E
:103670000400984204D0C221054889000EF09EF84B
:103680000423A2681343A36010BDC0460024014078
:103690001AB20108054B10B50400984203D0044843
:1036A00004490EF08BF8206C80B210BD002401405C
:1036B0001AB20108150300000D4B70B504000D008F
:1036C000984203D00B480C490EF078F8012D08D928
:1036D00008480A490EF072F80123E2681343E360D8
:1036E00070BD002DF8D10122E3689343F7E7C0468F
:1036F000002401401AB20108410300004203000007
:10370000094B70B504000D00984204D0D72107483A
:1037100089000EF053F80222E3689343E360E16806
:103720002943E16070BDC046002401401AB201087F
:10373000114B70B504000D001600984204D0F22120
:103740000E4889000EF03AF8012E03D90B480C49B7
:103750000EF034F8002D03D09F232A009A4303D0A3
:10376000064808490EF02AF86368002E02D02B4361
:10377000636070BDAB43FBE7002401401AB201084F
:10378000C9030000CA0300001B4B70B505000C0004
:10379000984204D0FC21194889000EF00FF8802CC3
:1037A0000ED00FD8631E0F2B06D9144814490EF003
:1037B00005F8E30104D511E0124BE340DB07F4D533
:1037C0002B680EE0104B9C4210D8103B9C42ECD969
:1037D0000E4BE2180E4BD340DB07E6D5AB680B4A25
:1037E00013401C40631E9C41E0B270BD81231B0648
:1037F0009C42F3D0D9E7C046002401401AB2010828
:10380000F10300001601010010000001FFFFFFFEA0
:103810000B8000000A4B70B505000C00984203D0E5
:10382000084809490DF0CAFF002C02D0074B1C4282
:1038300003D0044806490DF0C1FF2C6070BDC0469E
:10384000002401401AB201081B04000060FFFFEFD2
:103850001C040000114B70B505000C00984203D009
:103860000F4810490DF0AAFF102C0AD8002C03D0E5
:103870000D4BE340DB0706D409480C490DF09EFFD1
:1038800001E0802CF8D16B682A680020144203D034
:103890001C40631E9C41E0B270BDC0460024014044
:1038A0001AB20108350400001601010036040000B8
:1038B0000A4B70B505000C00984203D0084809492E
:1038C0000DF07CFF002C03D09F2322009A4303D0ED
:1038D000034805490DF072FF2C6070BD00240140C3
:1038E0001AB201085A0400005B0400000022014BD8
:1038F0001A6070471C0001401023020070B59A4303
:1039000006000C00002A03D0472147480DF056FF5F
:10391000A268464B110019401A4207D08023DB00F1
:10392000994203D0482140480DF048FFE268404BDF
:103930001A4203D049213C480DF040FF22693D4B1B
:103940001A4203D04A2138480DF038FF62690C2A28
:1039500005D8394BD340DB0705D4002A03D04B21CF
:1039600031480DF02BFF2368344D002E37D11A005B
:1039700033490A400B420FD08023DB049A420BD01C
:1039800080231B059A4207D0C0231B059A4203D00F
:103990004F2125480DF012FF30226368934305D074
:1039A000402B03D0502120480DF008FF6B68254ABA
:1039B00013406B60244B2A68B340A1689A43636844
:1039C0000B43E1680B4321690B4361690B43B3402F
:1039D000216813436A680A436A602B6070BD102E29
:1039E000E8D11A0019490A400B420FD08023DB05A9
:1039F0009A420BD080231B069A4207D0C0231B0695
:103A00009A4203D0552108480DF0D8FE3022636851
:103A1000934305D0402B03D0562103480DF0CEFE32
:103A20006B681B011B09C4E747B20108FFFCFFFFDD
:103A3000FFF7FFFFFFCFFFFF101100001C00014048
:103A4000FFFFFFFCFFFFFFF07C3F0000FFFFFFCF09
:103A50000023036043608360C36003610C334361F0
:103A600070471023020070B59A4304000E00002A2C
:103A700003D089210B480DF0A1FE0B4D012E09D971
:103A80008A2108480DF09AFE0123A3402A681343B7
:103A90002B6070BD002EF7D10122A2402B6893430A
:103AA000F6E7C04647B201081C000140102302009F
:103AB00010B59A430400002A03D0B12106480DF046
:103AC0007DFE064B18688023DB01A3401840431E8F
:103AD0009841800310BDC04647B201081C00014058
:103AE00070B510231400020006000D009A4303D0A5
:103AF000DD2112480DF062FE032D03D9DE210F48AF
:103B00000DF05CFE072C03D9DF210C480DF056FEAA
:103B10000B4B5A68002E09D10A49A4010A405A6089
:103B20005A682D0314432C435C6070BD064964023F
:103B30000A405A605A68AD031443F4E747B20108DB
:103B40001C0001403FCEFFFFFF8FF9FF0223020060
:103B500010B59A430400002A03D0F82105480DF05F
:103B60002DFE0221044B1A688A431A601A68224308
:103B70001A6010BD47B201081C00014010B50A4C84
:103B800001280AD91C210948FF310DF017FE8023B6
:103B900022681B041343236010BD0028F7D123685B
:103BA000034A1340F7E7C0461C00014047B2010832
:103BB000FFFF7FFF1023020010B59A430400002A84
:103BC00004D0A421054849000DF0F8FD80231B0214
:103BD000A340034A11680B43136010BD47B20108AC
:103BE0001C0001400122054B054952421A605961EF
:103BF000002119711A6102329A6070470030024048
:103C0000B71DC1040123024A91680B4393607047BA
:103C10000030024010B50400182803D8074BC340F9
:103C2000DB0703D4522106480DF0C8FD1821054AD0
:103C300093688B431C43946010BDC0460101010191
:103C400075B20108003002406023020010B59A43AB
:103C50000400002A03D06F2104480DF0AFFD60215D
:103C6000034A93688B431C43946010BD75B20108EE
:103C70000030024010B5094C012808D987210848B6
:103C80000DF09CFD8023A2681343A36010BD0028A3
:103C9000F8D18022A3689343F7E7C0460030024082
:103CA00075B20108014B18617047C04600300240F0
:103CB000014B58617047C04600300240014B18600C
:103CC0001868704700300240014B18801868704730
:103CD00000300240014B18701868704700300240F5
:103CE000002310B5044A8B4201D1106810BD9C001E
:103CF000045901331460F6E700300240014B1868A4
:103D00007047C04600300240014B18717047C046F2
:103D100000300240014B1879C0B2704700300240B9
:103D2000014B1868000C704700580140024B18689E
:103D30000005000D7047C0460058014006230200F0
:103D400070B59A4304000E00002A01D1002803D167
:103D5000542109480DF032FD084D012E07D9552197
:103D600005480DF02BFD6B6823436B6070BD002E82
:103D7000F9D16B68A343F8E7A2B2010800580140EB
:103D80000D4B70B504000E00184201D1002803D17C
:103D900077210A480DF012FD094D012E07D978212F
:103DA00006480DF00BFDAB682343AB6070BD002EE1
:103DB000F9D1AB68A343F8E7ECE2DFFFA2B2010858
:103DC000005801400D4B70B504000E00184201D19F
:103DD000002803D193210A480DF0F0FC094D012E73
:103DE00007D9942106480DF0E9FCEB682343EB600A
:103DF00070BD002EF9D1EB68A343F8E7FFF7F8FF99
:103E0000A2B201080058014010B5094C022803D1A4
:103E1000236A1843206210BD002803D006210548FC
:103E20000DF0CCFC0222236A93432362F3E7C046E1
:103E300000400048D2B20108014B18607047C046EC
:103E400000400048014B58607047C04600400048A1
:103E5000014B98687047C04600400048014BD86845
:103E60007047C04600400048014B18617047C0468B
:103E700000400048014B58697047C0460040004868
:103E800070B504000D00012803D0322105480DF063
:103E900095FC054B1A6A002D02D022431A6270BDB0
:103EA000A243FBE7D2B201080040004810B504006D
:103EB000012803D0422105480DF080FC044B5B6AC9
:103EC0001C40631E9C41E0B210BDC046D2B2010846
:103ED0000040004810B50400012803D051210448D7
:103EE0000DF06CFC034A536A2343536210BDC04675
:103EF000D2B201080040004870B5224D0400A8422B
:103F00000FD0214B98420CD0204B984209D0204B27
:103F1000984206D01F4B984203D038211E480DF01E
:103F20004DFC23681D4A1340236000232360636017
:103F3000A360E360AC4205D1194A0F3351680B43CB
:103F4000536070BD104B9C4203D1154AF023516859
:103F5000F5E70E4B9C4204D1F023114A1B01516836
:103F6000EDE70B4B9C4204D1F0230D4A1B02516834
:103F7000E5E7084B9C42E4D1F023094A1B03516852
:103F8000DDE7C046080002401C000240300002404D
:103F9000440002405800024003B30108FEFF000045
:103FA00000000240404B70B505000C0098420FD055
:103FB0003E4B98420CD03E4B984209D03D4B984224
:103FC00006D03D4B984203D075213C480DF0F6FBDE
:103FD0001022A368934303D0762138480DF0EEFBFE
:103FE000E368374A013B934203D9772133480DF008
:103FF000E5FB40222369934303D078212F480DF03D
:10400000DDFB80226369934303D079212B480DF0B7
:10401000D5FBA3692B4A134207D08022920093421A
:1040200003D07A2125480DF0C9FBE369264A1342E3
:1040300007D080221201934203D07B211F480DF04C
:10404000BDFB2022236A934303D07C211B480DF043
:10405000B5FB626A1D4B1A4203D07D2117480DF053
:10406000ADFBA26A1A4B1A4203D07E2113480DF011
:10407000A5FB2A68174B216A1A40A3680B432169E4
:104080000B4361690B43A1690B43E1690B43616A0F
:104090000B43A16A0B4313432B60E3686B602368F7
:1040A000AB606368EB6070BD080002401C0002401A
:1040B00030000240440002405800024003B30108AF
:1040C000FEFF0000FFFEFFFFFFFBFFFFFFCFFFFF34
:1040D000FFBFFFFF0F80FFFF00230360436083608B
:1040E000C360036143618361C361036243628362AE
:1040F0007047134B70B504000D0098420FD0114B60
:1041000098420CD0104B984209D0104B984206D0E0
:104110000F4B984203D0D1210E480DF04FFB012DDB
:1041200008D9D2210B480DF049FB01232268134323
:10413000236070BD002DF8D12368074A1340F7E7CC
:10414000080002401C0002403000024044000240CF
:104150005800024003B30108FEFF00000C4B70B58D
:1041600004000D00984210D00A4B98420DD00A4B23
:1041700098420AD0094B984207D0094B984204D084
:104180008621084849000DF019FB656070BDC046E6
:10419000080002401C00024030000240440002407F
:1041A0005800024003B301080C4B10B504009842BC
:1041B00010D00B4B98420DD00A4B98420AD00A4BB4
:1041C000984207D0094B984204D08F2108484900F3
:1041D0000DF0F4FA606880B210BDC04608000240DD
:1041E0001C000240300002404400024058000240DF
:1041F00003B3010870B5574E05000C00B04204D05F
:1042000062215548FF310DF0D9FA544B9C4211D030
:104210005CD8534B9C420DD03BD8524B9C4209D0AA
:1042200022D8514B9C4205D017D80D2C10D8A31E74
:10423000042B23D90F22210F89008A40A8352B682F
:10424000240193432B602B6824091C432C6070BD10
:1042500080235B059C4211D1ECE7102322009A4396
:10426000424B93420AD1E5E7414B9C42E2D01022F7
:104270009C4209D83F4BE3189343DBD0B121364829
:1042800049000DF09BFAD5E7230093431A003A4BFF
:10429000E7E73A4B9C42CDD00ED8394A9442C9D078
:1042A000384B06D88022234092059342C2D0364B29
:1042B000D0E7364AA21820E0354A9442BAD0314BB2
:1042C00001D8344AF6E7344A2340CAE7334B9C42CC
:1042D000B0D020D8324B9C42ACD011D8314B9C424C
:1042E000A8D007D8C022304B920523409342A1D0DA
:1042F0002E4BAFE72E4A2F4BE3181A42BED199E757
:104300002D4A944200D195E7274B01D82B4AD1E79B
:104310002B4A2340A5E72B4B9C4200D18AE70DD8BE
:10432000B44200D186E706D8274B9C4200D181E7F2
:104330008023DB058EE7254A254BDDE7254A94429D
:1043400000D177E7214B01D8234AB3E7234A234022
:1043500087E7C0460000024003B30108000C0020BC
:10436000C0000010400000101000001020000010DD
:104370009000001090FFFFEFA0000010000500204B
:1043800000020020FFFEFFFFD000001000FDFFDF55
:104390000009002000F9FFDF000A002000C0003003
:1043A0000060003000200030FFEFFFFF000D002014
:1043B000FFDFFFFF00D0FFCF009000300090FFCF65
:1043C00000A000300000084000D00030FFFFFEFFDA
:1043D0000000FDBF00000B400000F7BF00000C40D4
:1043E000194B70B504000D001600984210D0174B01
:1043F00098420DD0164B98420AD0164B984207D0DF
:10440000154B984204D07A211448FF310DF0D6F9AB
:104410000E232A009A4301D1002D04D1BD210F485B
:1044200049000DF0CBF9012E08D97C210B48FF3152
:104430000DF0C4F923682B43236070BD002EF9D121
:104440002368AB43F8E7C046080002401C00024066
:1044500030000240440002405800024003B301080B
:10446000802310B5DB000400984207D028D820280C
:1044700016D8032809D8431E012B0BD81F4B1B68E5
:104480001C40631E9C41E0B210BD1D4B021FD34077
:10449000DB07F3D4D7211B4849000DF08FF9EDE776
:1044A00080235B009842E9D005D803004022403BBE
:1044B0009343EFD1E2E780239B009C42EAD1DDE702
:1044C00080231B029842D9D00DD880239B019842AB
:1044D000D4D005D80C4A0D4BE3181342DAD1CDE7FE
:1044E0008023DB01E9E78023DB029842C6D002D8B3
:1044F000074A084BF0E780231B03DEE70000024079
:104500001110001003B30108FFF7FFFF00F8FFFFD1
:10451000FFFFFEFF0000FFFF064B421E10B5040028
:104520009A4204D9F121044849000DF047F9034BA0
:104530005C6010BDFEFF0F0003B3010800000240E5
:10454000802310B5DB000400984207D027D820282C
:1045500015D8032809D8431E012B0BD81F4B1B6805
:104560001C40631E9C41E0B210BD1D4B021FD34096
:10457000DB07F3D41B481C490DF020F9EEE780233C
:104580005B009842EAD005D803004022403B9343A9
:10459000F0D1E3E780239B009C42EBD1DEE7802350
:1045A0001B029842DAD00DD880239B019842D5D0C7
:1045B00005D80E4A0E4BE3181342DBD1CEE7802319
:1045C000DB01E9E78023DB029842C7D002D8094A21
:1045D000094BF0E780231B03DEE7C04600000240E2
:1045E0001110001003B301080D020000FFF7FFFFD8
:1045F00000F8FFFFFFFFFEFF0000FFFF064B421E1B
:1046000010B504009A4203D9044805490DF0D6F8C4
:10461000044B5C6010BDC046FEFF0F0003B30108F1
:104620004102000000000240044B054A1A600022CB
:104630005A609A60DA60034A5A6170470004014088
:104640000000940FFFFF6B00042270B50379040093
:10465000934303D03D2126480DF0B0F86279102A2B
:1046600003D8244BD340DB0703D43E2120480DF070
:10467000A5F82368204A134201D1002B03D13F2122
:104680001B480DF09BF8A379012B03D94021184852
:104690000DF094F8194B22792568D218A379E943D3
:1046A000002B20D0154B186808401860586801404E
:1046B0005960116829431160996822689143996093
:1046C000D9689143D9606179102906D1996811435D
:1046D0009960D9680A43DA6070BD084BCB18196835
:1046E0000A431A60F8E7136819401160F4E7C046FE
:1046F00030B3010800110100000004FD0004014076
:10470000C022002312010360828083717047084B2E
:1047100010B50400184201D1002803D182210548B8
:104720000DF04CF8044A13692343136110BDC046D1
:10473000000004FD30B3010800040140802310B5DF
:104740005B010400984207D02AD8402804D016D82C
:10475000022808D800280DD0224B5B691C40631E3C
:104760009C41E0B210BD021F1C2A03D81E4BD3404F
:10477000DB07F1D4A1211D480DF020F8ECE78023E0
:104780009B009842E8D005D803008022803B9343E9
:10479000F0D1E1E7164A174BE3181342EAD1DBE701
:1047A00080231B039842D7D00AD880231B0298424B
:1047B000D2D002D8104A114BEEE7114A114BEBE769
:1047C0008023DB039842C7D002D80F4A0F4BE3E7A0
:1047D00080231B049842BFD080239B049842C9D1F8
:1047E000BAE7C046000401401110001030B30108C0
:1047F000FFFBFFFF00FCFFFFFFDFFFFF00E0FFFF0D
:10480000FFFFFEFF0000FFFFFFFFEFFF0000F0FFD4
:10481000064B10B50400184201D1002803D1B7217E
:1048200003480CF0CBFF034B5C6110BD000004FD9E
:1048300030B3010800040140802310B55B0104007F
:10484000984207D02AD8402804D016D8022808D881
:1048500000280DD0224B5B691C40631E9C41E0B2D6
:1048600010BD021F1C2A03D81E4BD340DB07F1D416
:10487000C6211D480CF0A2FFECE780239B00984264
:10488000E8D005D803008022803B9343F0D1E1E7D4
:10489000164A174BE3181342EAD1DBE780231B03C8
:1048A0009842D7D00AD880231B029842D2D002D88F
:1048B000104A114BEEE7114A114BEBE78023DB0363
:1048C0009842C7D002D80F4A0F4BE3E780231B045E
:1048D0009842BFD080239B049842C9D1BAE7C04612
:1048E000000401401110001030B30108FFFBFFFF6E
:1048F00000FCFFFFFFDFFFFF00E0FFFFFFFFFEFF09
:104900000000FFFFFFFFEFFF0000F0FF064B10B5B8
:104910000400184201D1002803D1DD2103480CF026
:104920004DFF034B5C6110BD000004FD30B3010876
:104930000004014010B50400022803D93E210548B7
:104940000CF03CFF0321044A13688B431C431460A2
:1049500010BDC0465EB301080020024010B5094CEE
:10496000012808D9542108480CF028FF1023226898
:104970001343236010BD0028F8D11022236893430D
:10498000F7E7C046002002405EB30108024B1868FA
:104990008006C00F7047C04600200240044B1A69D1
:1049A000120603D5034A5A60034A5A607047C0464C
:1049B0000020024023016745AB89EFCD8023024AE6
:1049C00011690B431361704700200240044B1A69C0
:1049D000920503D4034A9A60034A9A607047C0461E
:1049E0000020024023016745AB89EFCD024A03490D
:1049F00013690B401361704700200240FFFDFFFF69
:104A00008023034A9B0111690B4313617047C04621
:104A100000200240024BD869000AC0B27047C0466D
:104A200000200240014B186A7047C0460020024037
:104A3000034BD86906231840431E9841C0B2704703
:104A4000002002400E4B70B504000E00184201D148
:104A5000002804D1EB210B4889000CF0AFFE0A4D71
:104A6000012E07D9074809490CF0A8FE2B692343FA
:104A70002B6170BD002EF9D12B69A343F8E7C04626
:104A8000FFEBFFFF5EB3010800200240AD03000012
:104A900010B5040001280AD0021F1C2A03D8074BB6
:104AA000D340DB0703D4064806490CF087FE064BCB
:104AB000DB681C40631E9C41E0B210BD0110001079
:104AC0005EB30108CA030000002002403C2302003C
:104AD00010B59A430400002A01D1002804D1F9211D
:104AE000034889000CF06AFE024BDC6010BDC04632
:104AF0005EB30108002002400120074BDA68024241
:104B000009D1DA680018D20605D4D8680423184001
:104B100043425841033070470020024010B5040062
:104B2000FFF7EAFF012807D1002C01D1043010BDA6
:104B3000FFF7E2FF013CF5E7002CF8D10520F6E78E
:104B4000F8231B06C218802370B55B0206009A4248
:104B500003D3BF210D480CF031FEB0200003FFF756
:104B6000DDFF042810D10225094CB0202369000381
:104B70002B43236140236661226913432361FFF7BE
:104B8000CDFF2369AB43236170BDC0465EB301080E
:104B900000200240B02070B50003FFF7BFFF050002
:104BA00004280ED1074C2369184340232061B0200C
:104BB0002269000313432361FFF7B0FF2369AB436E
:104BC000236170BD002002400023F7B50193F82354
:104BD0001B06C218802304000E005B029A4204D315
:104BE00008211248FF310CF0E9FDB0200003FFF767
:104BF00095FF042818D10127B0200D4D00032B6923
:104C00003B432B61B3B22380FFF788FF042808D110
:104C1000B02002340194019B360C1E800003FFF784
:104C20007DFF2B69BB432B61FEBDC0465EB301080F
:104C300000200240F8B5F8231B06C21880230500A7
:104C40000E005B029A4204D340210C48FF310CF065
:104C5000B5FDB0200003FFF761FF04280CD1012748
:104C6000B020074C000323693B4323612E80FFF7EC
:104C700055FF2369BB432361F8BDC0465EB30108FD
:104C80000020024070B5FFF7D3FE0026B04200D1ED
:104C9000AA36B0200003FFF741FF042820D12025C9
:104CA000134CB020236900032B4323614023226966
:104CB00013432361FFF732FF042812D1B020236988
:104CC0000003AB4323612369103D2B432361094B50
:104CD0001E80FFF723FF052802D02369AB43236121
:104CE00070BD0528FCD0102223699343F7E7C04626
:104CF0000020024000F8FF1F70B5051E03D11848C0
:104D000018490CF05BFDB0200003FFF707FF060019
:104D1000042823D1FF231022EC43AB43124D296911
:104D20000A432A61FF2B0BD1240AE4B23000FF2C86
:104D300010D0B0200D4B00035C81FFF7EFFE07E0C1
:104D4000B0200A4A00031381FFF7E8FE0428EBD0E5
:104D5000052803D010222B6993432B6170BDC046F8
:104D60005EB301080A0200000020024000F8FF1FA5
:104D700070B50600AA2805D0BB2803D015481649EF
:104D80000CF01CFDB0200003FFF7C8FE042820D162
:104D90002025124CB020236900032B4323614023BC
:104DA000226913432361FFF7B9FE04280CD1B02018
:104DB00023690003AB4323612369103D2B43236127
:104DC000074B1E80FFF7AAFE052802D02369AB43DC
:104DD000236170BD5EB30108430200000020024061
:104DE00000F8FF1FF8B505000C001700012803D9D3
:104DF000184819490CF0E2FC022322009A4304D01F
:104E0000A221144889000CF0D9FC04233A009A43EB
:104E100003D0104811490CF0D1FCB0200003FFF77B
:104E20007DFE042814D110220D4EB02033693D437D
:104E300013433361F8232C431C430A4B00035C806B
:104E4000FFF76CFE052803D01022336993433361CA
:104E5000F8BDC0465EB30108870200008902000069
:104E60000020024000F8FF1F1023020070B59A4393
:104E70000600002A03D00E480E490CF09FFCB0201B
:104E80000003FFF74BFE042811D110250A4CB02077
:104E9000236900032B432361EF231E43074B5E80EE
:104EA000FFF73CFE052802D02369AB43236170BDA8
:104EB0005EB30108AF0200000020024000F8FF1FAF
:104EC0002023020070B59A430600002A03D00E4842
:104ED0000E490CF073FCB0200003FFF71FFE0428FE
:104EE00011D110250A4CB020236900032B43236104
:104EF000DF231E43074B5E80FFF710FE052802D01C
:104F00002369AB43236170BD5EB30108D502000085
:104F10000020024000F8FF1F4023020070B59A43B2
:104F20000600002A03D00E480E490CF047FCB020C2
:104F30000003FFF7F3FD042811D110250A4CB0201F
:104F4000236900032B432361BF231E43074B5E806D
:104F5000FFF7E4FD052802D02369AB43236170BD50
:104F60005EB30108FB0200000020024000F8FF1FB2
:104F700070B50600B0200003FFF7D0FD042811D162
:104F80001025094CB020236900032B43236188239B
:104F90001E43064B5E80FFF7C1FD052802D0236942
:104FA000AB43236170BDC0460020024000F8FF1FE4
:104FB000F8B5020002239A430F4B05000E009A42F7
:104FC00004D0D4210D4889000CF0F8FBB020000378
:104FD000FFF7A4FD04280ED11027B020084C0003D1
:104FE00023693B4323612E80FFF798FD052802D0FB
:104FF0002369BB432361F8BD04F8FF1F5EB30108BA
:1050000000200240902310B5DB0598420AD1802091
:105010000121800202F068F880200021800202F065
:1050200063F80FE01A4B98420DD01A4B984213D0F8
:10503000194B984219D0194B98421FD02A21184871
:105040000CF0BCFB10BD80200121C00202F04CF826
:1050500080200021C002E2E780200121000302F04D
:1050600043F8802000210003D9E78020012140037C
:1050700002F03AF8802000214003D0E7802001218F
:10508000C00302F031F880200021C003C7E7C0460A
:105090000004004800080048000C004800140048C4
:1050A0008DB30108F8B5902304000D00DB0598428C
:1050B0000FD0364B98420CD0354B984209D0354B27
:1050C000984206D0344B984203D0592133480CF013
:1050D00075FB2B68002B03D15A2130480CF06EFB76
:1050E0002B79032B03D95B212C480CF067FBEB7960
:1050F000022B03D95C2129480CF060FB0026012318
:10510000B3402A681A4093423BD12B797700013B88
:10511000012B24D86B79012B05D9032B03D06C21EB
:105120001E480CF04BFB0322BA40A3689343A360D4
:105130006B79A268BB401343A360AB79012B03D901
:10514000732116480CF03AFB0122B240A388934326
:10515000A380AA79A388B24013439BB2A380032201
:10516000BA402368934323602B792168BB400B43EB
:105170002360E3689343E360EB79E268BB40134349
:10518000E3600136102EBAD1F8BDC04600040048D5
:1051900000080048000C0048001400488DB30108C6
:1051A000024B036080235B0043607047FFFF0000F9
:1051B000802337B55B020193902304000D00DB05CB
:1051C000984206D00C4B984203D0A5210B480CF016
:1051D000F5FA002D03D1A62108480CF0EFFA019B47
:1051E0002B430193019BE361E561019BE361E3696B
:1051F0000193E369019337BD000400488DB30108B2
:10520000902370B5DB0505000C0098420FD0264BAB
:1052100098420CD0254B984209D0254B984206D095
:10522000244B984203D0D22123480CF0C7FA8023A4
:105230005B009C4207D01FD8202C15D8032C08D81F
:10524000631E012B0BD82B8A1C40631E9C41E0B2CD
:1052500070BD1A4B221F92B2D340DB07F3D4D32187
:1052600015480CF0ABFAEEE723004022403B934395
:105270009BB2002BF3D1E6E780235B019C42E2D096
:1052800009D80F4B0F4AE3181342DCD080231B01CF
:105290009C42E4D1D7E70C4B0C4AE3181342D2D01E
:1052A00080231B02F4E7C0460004004800080048C1
:1052B000000C0048001400488DB3010811100010C4
:1052C00000FEFFFFFFFD000000E0FFFFFFDF00002A
:1052D000902310B5DB05040098420FD0094B98428B
:1052E0000CD0094B984209D0084B984206D0084B85
:1052F000984203D0E82107480CF060FA208A80B277
:1053000010BDC0460004004800080048000C0048DA
:10531000001400488DB30108902370B5DB0505002B
:105320000C0098420FD0264B98420CD0254B984247
:1053300009D0254B984206D0244B984203D0FA213D
:1053400023480CF03BFA80235B009C4207D01FD817
:10535000202C15D8032C08D8631E012B0BD8AB8A40
:105360001C40631E9C41E0B270BD1A4B221F92B2DA
:10537000D340DB07F3D4FB2115480CF01FFAEEE70E
:1053800023004022403B93439BB2002BF3D1E6E73E
:1053900080235B019C42E2D009D80F4B0F4AE318EF
:1053A0001342DCD080231B019C42E4D1D7E70C4B95
:1053B0000C4AE3181342D2D080231B02F4E7C04604
:1053C0000004004800080048000C00480014004891
:1053D0008DB301081110001000FEFFFFFFFD00005B
:1053E00000E0FFFFFFDF0000902310B5DB050400A5
:1053F000984210D0094B98420DD0094B98420AD0E0
:10540000084B984207D0084B984204D0882107489F
:1054100049000CF0D3F9A08A80B210BD0004004806
:1054200000080048000C0048001400488DB3010833
:10543000902370B5DB0504000D00984210D00D4B91
:1054400098420DD00C4B98420AD00C4B984207D092
:105450000B4B984204D090210A4849000CF0AEF959
:10546000002D04D122210748FF310CF0A7F9A561D6
:1054700070BDC0460004004800080048000C004809
:10548000001400488DB30108902370B5DB050400BB
:105490000D00984210D00D4B98420DD00C4B984205
:1054A0000AD00C4B984207D00B4B984204D03221C3
:1054B0000A48FF310CF082F9002D04D199210748E8
:1054C00049000CF07BF9258570BDC04600040048FA
:1054D00000080048000C0048001400488DB3010883
:1054E000902370B5DB0505000C001600984210D023
:1054F0002A4B98420DD02A4B98420AD0294B984209
:1055000007D0294B984204D0A321284849000CF029
:1055100055F980235B009C4207D023D8202C19D852
:10552000032C0BD8631E012B0ED8012E31D9A421D8
:105530001E4849000CF042F9AC6170BD1C4B221FA3
:1055400092B2D340DB07F0D448211848FF310CF069
:1055500035F9EAE723004022403B93439BB2002BFE
:10556000F2D1E2E780235B019C42DED009D8114BE7
:10557000114AE3181342D8D080231B019C42E3D187
:10558000D3E70E4B0E4AE3181342CED080231B0202
:10559000F4E7002ED0D12C85CFE7C04600040048A8
:1055A00000080048000C0048001400488DB30108B2
:1055B0001110001000FEFFFFFFFD000000E0FFFFE4
:1055C000FFDF0000902370B5DB0504000D0098425A
:1055D00010D0094B98420DD0084B98420AD0084B86
:1055E000984207D0074B984204D05E210648FF310D
:1055F0000CF0E4F8A58270BD0004004800080048E3
:10560000000C0048001400488DB30108902370B5C9
:10561000DB0506000C001500984207D0124B98429B
:1056200004D090211148FF310CF0C8F80F2C04D998
:10563000C8210E4849000CF0C1F8082D04D9922168
:105640000A48FF310CF0BAF807230F2123409B00D2
:1056500099409D40E408A4003419226A8A432262DA
:10566000226A1543256270BD000400488DB301080D
:105670000F4B10B598420AD180200121800301F020
:1056800079FD80200021800301F074FD10BD094BDD
:10569000984203D0432108480CF090F88020012163
:1056A000C00301F067FD80200021C003ECE7C04685
:1056B0000054004000580040BBB30108354B70B5A2
:1056C00004000D00984206D0334B984203D062216B
:1056D00032480CF073F86A68314B1A4203D06321E8
:1056E0002E480CF06BF8AB680F2B03D964212B48C4
:1056F0000CF064F8EB682B4A134207D08022920327
:10570000934203D0652125480CF058F880232A697C
:10571000DB009A4203D3662120480CF04FF86A69F7
:10572000214B1A4203D067211C480CF047F8AA69A4
:105730001E4B1A4203D0682118480CF03FF8012292
:1057400023686868934323602168194B1940AB684C
:105750001B0203430B43236016492B680B40236154
:1057600023681A4300232260A3602A69E360AB69BF
:105770001343A3608023A2681B021343A360EA685B
:1057800023681343236063680B4A13406A69134319
:10579000636070BD0054004000580040BBB3010876
:1057A000FFEFFFFFFFFFEFFFFF7FFFFFFFFBFFFFAD
:1057B000FFE0CF00FFFFFFF0FF7FFF078022002305
:1057C0001202036043608360C360036142618361CE
:1057D00070470F4B70B504000D00984206D00D4B7A
:1057E000984203D0C9210C480BF0E8FF012D08D9DD
:1057F000CA2109480BF0E2FF01232268134323600A
:1058000070BD002DF8D1012223689343F7E7C0460D
:105810000054004000580040BBB301080A4B10B5CB
:105820000400984206D0094B984203D0E021084872
:105830000BF0C4FF012322689A4322602268226889
:105840001343236010BDC046005400400058004080
:10585000BBB30108144B70B504000D00160098424C
:1058600007D0124B984204D08021114849000BF018
:10587000A5FF012E04D902210D48FF310BF09EFF38
:10588000FE232A009A4301D1002D04D1812108482A
:1058900049000BF093FF2368002E02D02B432360B6
:1058A00070BDAB43FBE7C0460054004000580040C9
:1058B000BBB30108104B70B504000D00984207D02F
:1058C0000E4B984204D08D210D4849000BF076FF15
:1058D000012D09D91C210A48FF310BF06FFF236805
:1058E000084A1340236070BD002DF8D18023226840
:1058F0009B021343F6E7C0460054004000580040A6
:10590000BBB30108FFFFFDFF0E4B70B504000D0097
:10591000984204D034210C48FF310BF04FFF012D89
:105920000AD99A21084849000BF048FF80232268D1
:10593000DB021343236070BD002DF7D12368034AB7
:105940001340F7E700540040BBB30108FFFFFBFF23
:10595000104B70B504000D00984207D00E4B9842D2
:1059600004D0A6210D4849000BF028FF012D0AD9CB
:105970004E210A48FF310BF021FF8023E2681B0211
:105980001343E36070BD002DF7D1E368044A134070
:10599000F7E7C0460054004000580040BBB3010880
:1059A000FF7FFFFF144B70B505000E0014009842F6
:1059B00007D0124B984204D0B821114849000BF08F
:1059C000FDFEFF2E04D972210D48FF310BF0F6FECB
:1059D000072C04D9B9210A4849000BF0EFFEEB6807
:1059E000084A24021340E022D2001440FE2216404E
:1059F00034431C43EC6070BD00540040005800402C
:105A0000BBB3010801F8FFFF104B70B504000D0097
:105A1000984207D00E4B984204D0C6210D48490049
:105A20000BF0CCFE012D0AD98E210A48FF310BF074
:105A3000C5FE802322681B031343236070BD002D25
:105A4000F7D12368044A1340F7E7C04600540040EA
:105A500000580040BBB30108FFFFF7FF104B70B5C3
:105A600004000D00984207D00E4B984204D0A621A6
:105A70000D48FF310BF0A2FE012D0AD9D3210A48AF
:105A800049000BF09BFE802322685B0213432360D6
:105A900070BD002DF7D12368044A1340F7E7C046D4
:105AA0000054004000580040BBB30108FFFFFEFF58
:105AB0000F4B70B505000C00984207D00D4B984273
:105AC00004D0E0210C4849000BF078FE8023DB0075
:105AD0009C4204D3C2210848FF310BF06FFE6B6873
:105AE000A4059B0A9B02A40D1C436C6070BDC046BC
:105AF0000054004000580040BBB30108104B70B583
:105B000004000D00984207D00E4B984204D0DC21CF
:105B10000D48FF310BF052FE012D0AD9EE210A4843
:105B200049000BF04BFE802362681B011343636046
:105B300070BD002DF7D16368044A1340F7E7C046F3
:105B40000054004000580040BBB30108FFF7FFFFBE
:105B50000F4B70B504000D00984207D00D4B9842D2
:105B600004D087210C4889000BF028FE012D09D9AB
:105B700009480A490BF022FE802362689B04134304
:105B8000636070BD002DF7D16368054A1340F7E7E5
:105B90000054004000580040BBB301081D02000043
:105BA000FFFFFFFD0F4B70B504000D00984206D0BB
:105BB0000D4B984203D00D480D490BF0FFFD012D10
:105BC00009D90A480B490BF0F9FD802362685B0490
:105BD0001343636070BD002DF7D16368064A13401C
:105BE000F7E7C0460054004000580040BBB301082E
:105BF0003502000036020000FFFFFFFE094B70B5C2
:105C000005000C00984206D0074B984203D0074885
:105C100007490BF0D3FD6B68064A240413401C436C
:105C20006C6070BD0054004000580040BBB30108D8
:105C30004F020000FFFF00FF0F4B70B504000E0085
:105C4000984206D00D4B984203D00D480D490BF0F9
:105C5000B5FD002E04D163680B4A1340636070BD2C
:105C60008025ED00AE4203D0054808490BF0A6FDA3
:105C700063681D436560F2E700540040005800402F
:105C8000BBB301086A020000FFFBFFFF6B020000CC
:105C90000F4B70B504000D00984207D00D4B984291
:105CA00004D0A1210C4889000BF088FD012D09D9F1
:105CB00009480A490BF082FD802362689B01134367
:105CC000636070BD002DF7D16368054A1340F7E7A4
:105CD0000054004000580040BBB30108850200009A
:105CE000FFDFFFFF0F4B70B504000D00984206D098
:105CF0000D4B984203D00D480D490BF05FFD012D6F
:105D000009D90A480B490BF059FD80236268DB0171
:105D10001343636070BD002DF7D16368064A1340DA
:105D2000F7E7C0460054004000580040BBB30108EC
:105D30009D0200009E020000FFBFFFFF0F4B70B5E9
:105D400004000D00984207D00D4B984204D0AE21BC
:105D50000C4889000BF032FD012D09D909480A4988
:105D60000BF02CFD802362685B011343636070BD00
:105D7000002DF7D16368054A1340F7E7005400404F
:105D800000580040BBB30108B9020000FFEFFFFF5D
:105D90000F4B70B504000D00984206D00D4B984291
:105DA00003D00D480D490BF009FD012D08D90A4813
:105DB0000B490BF003FD63680A4A1340636070BD32
:105DC000002DF8D1802362681B021343F6E7C0461A
:105DD0000054004000580040BBB30108D10200004D
:105DE000D2020000FF7FFFFF084B10B5040098426D
:105DF00007D0074B984204D0BA21064889000BF01F
:105E0000DDFCFE23A069000C184010BD00540040CA
:105E100000580040BBB30108084B10B5040098427D
:105E200006D0074B984203D0064807490BF0C6FC42
:105E3000A069C003C00F800210BDC04600540040DE
:105E400000580040BBB30108F9020000F8B51F007C
:105E50001E4B06000D001400984207D01C4B9842C0
:105E600004D0C9211B4889000BF0A8FC8023DB006B
:105E70009D4203D3174818490BF0A0FC174B1F4253
:105E800007D080239B049F4203D0124814490BF093
:105E900095FC8023069ADB019A420AD090239B014D
:105EA0009A4206D00F4B1A4203D00A480E490BF013
:105EB00085FC73680D4A24041340069A3C43AD05E3
:105EC000AD0D14432C431C437460F8BD00540040D6
:105ED00000580040BBB3010825030000FFFFFFFE90
:105EE00026030000FFDFFFFF27030000009800FCEF
:105EF0000D4B70B504000D00984203D00B480C49BF
:105F00000BF05CFC012D09D908480A490BF056FC3E
:105F100080232268DB031343236070BD002DF7D17B
:105F20002368054A1340F7E700540040BBB301085B
:105F3000690300006A030000FFFFBFFF0D4B70B54F
:105F400004000D00984203D00B480C490BF036FCBE
:105F5000012D09D908480A490BF030FC80236269F9
:105F60001B021343636170BD002DF7D16369054ABD
:105F70001340F7E700540040BBB301088203000060
:105F800083030000FF7FFFFF0E4B70B504000D0080
:105F9000984203D00C480D490BF010FC012D0AD992
:105FA000E721094889000BF009FC802362691B0680
:105FB0001343636170BD002DF7D163695B005B081B
:105FC000F7E7C04600540040BBB301089B03000044
:105FD0000D4B70B504000D00984203D00B480C49DE
:105FE0000BF0ECFB012D09D908480A490BF0E6FB40
:105FF000802362695B011343636170BD002DF7D19B
:106000006369054A1340F7E700540040BBB3010839
:10601000B5030000B6030000FFEFFFFF0D4B70B5A6
:1060200005000C00984204D0F4210B4889000BF0C5
:10603000C5FB80235B019C4203D3074807490BF053
:10604000BDFB6B6924051B0B1B03240D1C436C61FA
:1060500070BDC04600540040BBB30108D10300002E
:106060000D4B70B505000C00984203D00B480C494D
:106070000BF0A4FB80235B019C4204D3FB21074867
:1060800089000BF09BFB6B69064A24041340064A07
:1060900014401C436C6170BD00540040BBB3010848
:1060A000EB030000FFFF00F00000FF0F0D4B70B589
:1060B00004000D00984203D00B480C490BF07EFB06
:1060C000012D09D908480A490BF078FB8023226882
:1060D0001B041343236070BD002DF7D12368054ACC
:1060E0001340F7E700540040BBB30108050400006B
:1060F00006040000FFFF7FFF0D4B70B504000D008C
:10610000984203D00B480C490BF058FB012D09D9DC
:1061100008480A490BF052FB80232268DB04134332
:10612000236070BD002DF7D12368054A1340F7E7BF
:1061300000540040BBB301081E0400001F0400000F
:10614000FFFFFFFB054B10B50400984203D0044845
:1061500004490BF033FB206AC0B210BD005400406C
:10616000BBB3010835040000002337B50193144B7D
:1061700005000C00984206D0124B984203D01248FA
:1061800012490BF01BFB082C0BD81223FF33E34002
:10619000DB070FD50195019BE4180194019B18685A
:1061A0003EBD23000C3BDBB21C2B03D8084ADA406F
:1061B000D207EFD4044807490BF000FBEAE7C046DA
:1061C0000054004000580040BBB3010865040000C3
:1061D0001111111166040000074B70B504000D0089
:1061E000984206D0054B984203D0054805490BF06C
:1061F000E5FAA56270BDC04600540040005800405A
:10620000BBB301088E040000074B10B50400984290
:1062100006D0064B984203D0054806490BF0CEFA4B
:10622000606AC0B210BDC046005400400058004033
:10623000BBB301089C040000124B70B504000D00B4
:106240001600984206D0104B984203D00F481049D0
:106250000BF0B4FA012E04D999210C48C9000BF0B7
:10626000ADFA0C4B1D4201D1002D03D107480A495C
:106270000BF0A4FA2368002E02D02B43236070BDDC
:10628000AB43FBE70054004000580040BBB301089B
:10629000C7040000FF3FFFFFC9040000224B70B598
:1062A00005000C00984206D0204B984203D02048AD
:1062B00020490BF083FA80235B009C4207D01CD856
:1062C000202C14D8032C08D8631E012B0AD8A869E7
:1062D0002040431E9841C0B270BD174B221FD340CF
:1062E000DB07F4D4124815490BF068FAEFE72300F6
:1062F0004022403B9343F5D1E9E780235B019C4278
:10630000E5D009D80E4B0F4AE3181342DFD08023A3
:106310001B019C42E6D1DAE780239B019C42D6D048
:1063200080231B02F5E7C04600540040005800409F
:10633000BBB3010842050000111000104305000026
:1063400000FEFFFFFFFDFFFF0B4B70B504000D00CB
:10635000984206D0094B984203D0094809490BF0EE
:106360002DFA094B1D4201D1002D03D104480749E4
:106370000BF024FAE56170BD005400400058004065
:10638000BBB301086B0500000040FFFF6C05000077
:10639000244B70B505000C00984206D0224B984261
:1063A00003D0224822490BF009FA80235B009C426B
:1063B00029D01ED8202C14D8012C04D91D4BA21E84
:1063C000D340DB070AD419481B490BF0F7F9FC232B
:1063D0009B011C4217D1C0231C4207D12B682340CC
:1063E00014E023004022403B9343ECD140222B6831
:1063F0000BE080231B019C4205D00FD80F4A104BA5
:10640000E3181342DFD180222B681340AA690020D1
:10641000224202D05A1E9341D8B270BD094A0A4B9B
:10642000EEE7C0460054004000580040BBB30108EE
:106430008D050000454000408E050000FFFDFFFF78
:1064400000FEFFFFFFEFFFFF00F0FFFF0B4B70B5FB
:1064500004000D00984206D0094B984203D0094829
:1064600009490BF0ABF9094B1D4201D1002D03D1B5
:10647000044807490BF0A2F9E56170BD00540040E3
:1064800000580040BBB30108C905000001C0FFFF70
:10649000CA050000064B10B50400984205D000283C
:1064A00003D0302103480BF089F9034B1C6010BD69
:1064B00055550000E8B301080030004010B5040055
:1064C000062803D9442103480BF078F9024B5C609D
:1064D00010BDC046E8B3010800300040802310B56D
:1064E0005B010400984203D3512103480BF066F985
:1064F000024B9C6010BDC046E8B30108003000406C
:10650000014B024A1A60704700300040AAAA0000FE
:10651000802310B55B010400984203D3692103482E
:106520000BF04CF9024B1C6110BDC046E8B30108EA
:1065300000300040014B024A1A60704700300040B2
:10654000CCCC0000431E10B50400012B05D9042853
:1065500003D0A42104480BF031F9044BD868204043
:10656000431E9841C0B210BDE8B30108003000409E
:10657000F8B583780400012B03D9322115480BF0BC
:106580001DF96378032B03D9332112480BF016F958
:106590001F22012123781A409140A278002A16D0A8
:1065A000FF2703269A081E403B000B489200121852
:1065B000C020F600B340800015589D4363789B01CE
:1065C0003B40B3402B431350034B1960F8BD034BC2
:1065D000D967FBE716B4010800E100E004E100E040
:1065E00070B504000E00102803D80C4BC340DB0725
:1065F00003D456210A480BF0E1F80A4D012E07D9C1
:10660000582107480BF0DAF82B6923432B6170BD42
:10661000002EF9D12B69A343F8E7C046140001000E
:1066200016B4010800ED00E010B5094C042803D1B0
:1066300023681843206010BD053003D06F21054842
:106640000BF0BCF80422236893432360F3E7C046B1
:1066500010E000E016B40108084B10B504009842A1
:1066600009D0074B984206D0064B984203D0072129
:1066700005480BF0A3F80023236010BD240001405F
:10668000280001402C00014044B401080F4B70B5B4
:1066900004000D00984209D00D4B984206D00D4BD6
:1066A000984203D00F210C480BF088F802232A00EF
:1066B0009A4303D0102108480BF080F80222236887
:1066C0009343236023682B43236070BD2400014063
:1066D000280001402C00014044B401080C4B70B567
:1066E00004000D00984209D00A4B984206D00A4B8C
:1066F000984203D0192109480BF060F80123226861
:10670000002D02D01343236070BD9A432260FBE743
:1067100024000140280001402C00014044B401083D
:1067200010B5802464052000012100F023FD002124
:10673000200000F01FFD10BD10B5094C012809D93B
:10674000422108480BF03AF8802322685B0013438B
:10675000236010BD0028F7D12368034A1340F7E7F0
:106760000070004071B40108FFFEFFFF60230200CB
:1067700010B59A430400002A05D0802A03D07D2159
:1067800004480BF01BF8E021034A13688B431C43B9
:10679000146010BD71B401080070004010B5094CC0
:1067A000012808D9942108480BF008F81023226822
:1067B0001343236010BD0028F8D1102223689343AF
:1067C000F7E7C0460070004071B40108421E124B4A
:1067D000FF3A70B504000E001A420CD080231B0152
:1067E000984208D00D4B0E4AC318134203D0C12162
:1067F0000C480AF0E3FF0C4D012E07D9C2210948CD
:106800000AF0DCFF6B6823436B6070BD002EF9D18A
:106810006B68A343F8E7C046FFFEFFFF00E0FFFF01
:10682000FFDFFFFF71B4010800700040431E10B588
:106830000400012B04D9A321074849000AF0BEFF38
:106840000421064A13698B431361012C01D130BF27
:1068500010BD20BFFCE7C04671B4010800ED00E0A8
:1068600070B504000D00012804D9B8210F48490073
:106870000AF0A4FF6B1E012B04D972210B48FF31D3
:106880000AF09CFF03210A4A13688B431C43094BFF
:1068900014601A6901310A431A61012D04D130BF15
:1068A0001A698A431A6170BD20BFF9E771B4010803
:1068B0000070004000ED00E00423074A116819430E
:1068C00011600221106801431160044A11690B43F1
:1068D000136130BF7047C0460070004000ED00E01B
:1068E00010B50400082804D88B235B00C340DB07E5
:1068F00004D4CE210548FF310AF060FF044B5B68E9
:106900001C40631E9C41E0B210BDC04671B401083A
:1069100000700040431E10B50400012B04D9F32180
:10692000044849000AF04AFF034BA4001A681443C4
:106930001C6010BD71B40108007000400121114BB2
:1069400011481A680A431A605A6802405A601A6865
:106950000E4802401A601A680D4802401A605A68D0
:106960000C4802400F205A60DA6A8243DA621A6BDE
:10697000094802401A635A6B8A435A6300229A609C
:106980007047C046001002400CB8FF08FFFFF6FE3B
:10699000FFFFFBFFFFFFC0FFACFEFFFF10B50400D1
:1069A000012805D9052803D0942104480AF006FFE0
:1069B0000022034B1A701C7010BDC0469EB4010823
:1069C0000210024010B504001F2803D9D221054847
:1069D0000AF0F4FEF821044AE40013688B431C43D8
:1069E000146010BD9EB401080010024010B5094C9F
:1069F000012808D9F22108480AF0E0FE01232268A4
:106A00001343236010BD0028F8D10122236893436B
:106A1000F7E7C046001002409EB4010810B504001C
:106A20001F2804D98721064849000AF0C7FEF8212B
:106A3000044AE400536B8B431C43546310BDC046AF
:106A40009EB401080010024010B5094C012809D974
:106A50002C210848FF310AF0B1FE0123626B134379
:106A6000636310BD0028F8D10122636B9343F7E7FD
:106A7000001002409EB4010810B5094C012809D944
:106A8000A021084849000AF099FE0422636B934351
:106A9000636310BD0028F8D10423626B1343F7E74A
:106AA000001002409EB4010810B50400012806D968
:106AB000052804D0B021084849000AF07FFE0121D2
:106AC000064B1A6A8A431A621A6A03318A431A62A7
:106AD0001A6A22431A6210BD9EB4010800100240D7
:106AE00010B50400182803D8084BC340DB0704D4B2
:106AF000BD21074849000AF061FE1821054B1A6ABA
:106B00008A431A621A6A22431A6210BD0101010106
:106B10009EB401080010024010B5094C012809D9A3
:106B2000C921084849000AF049FE0123626A13435B
:106B3000636210BD0028F8D10122636A9343F7E72E
:106B4000001002409EB401081A4B70B505000C00FD
:106B5000184208D080235B02984204D0B221164824
:106B6000FF310AF02BFE2300144A1340144216D0C2
:106B700080225203934212D08022920393420ED07D
:106B8000C0220F4B92032340934208D0E0239B0383
:106B90009C4204D0D921084849000AF00FFE094B55
:106BA00009495A680A405A60586820432843586087
:106BB00070BDC046FF7FFFFF9EB40108FFFFF3FFDB
:106BC000FFFFFBFF00100240FF7FC2FF10B50A4C21
:106BD00001280AD9CA210948FF310AF0EFFD8023B4
:106BE00022685B041343236010BD0028F7D123689B
:106BF000034A1340F7E7C046001002409EB4010864
:106C0000FFFFFFFE10B504000F2804D9E22105485C
:106C1000FF310AF0D3FD0F21034AD36A8B431C4393
:106C2000D46210BD9EB401080010024010B50A4C99
:106C300001280AD9FD21094849000AF0BFFD802337
:106C400022681B031343236010BD0028F7D123687B
:106C5000034A1340F7E7C046001002409EB4010803
:106C6000FFFFF7FF70B504000D00072805D987283E
:106C700003D00D480D490AF0A1FD2A000C4B1A4023
:106C80001D4207D08023DB059A4203D006480949FC
:106C90000AF094FD084B094A59682406114029431B
:106CA0000C435C6070BDC0469EB401083E0200000B
:106CB000FFFFFFCF3F02000000100240FFFFFF0870
:106CC00010B50400022804D9AC21054889000AF057
:106CD00075FD0321034A53688B431C43546010BD68
:106CE0009EB4010800100240024B58680C23184063
:106CF0007047C046001002408023020010B59A433E
:106D00000400002A14D0202302009A43902A0FD0B6
:106D1000402302009A43A02A0AD0102302009A437B
:106D2000C02A05D0F02803D0054806490AF046FDE0
:106D3000F021054A53688B431C43546010BDC04684
:106D40009EB40108E1020000001002400D4B10B596
:106D5000040018420ED0A0220B4BD20003409342F5
:106D600008D0C023DB00984204D0C0210748890026
:106D70000AF024FD064A074953680B401C4354603F
:106D800010BDC046FFFBFFFFFFFDFFFF9EB40108E3
:106D900000100240FFF8FFFF0F4B10B5040018422F
:106DA00007D00E4B984204D0C7210D4889000AF045
:106DB00005FD0C4B0C495A680A405A605968A2B24A
:106DC0000A435A601A6B0949240C0A401A631A6B69
:106DD00014431C6310BDC046FFFFFFFE00400001CE
:106DE0009EB4010800100240FFBFFFFFFFFEFFFF3F
:106DF0004023020010B59A430400002A03D006483D
:106E000006490AF0DBFC4021054B1A6B8A431A63E2
:106E10001A6B22431A6310BD9EB4010835030000AB
:106E2000001002401023020010B59A430400002A0B
:106E300003D0064806490AF0C1FC1021054B1A6B25
:106E40008A431A631A6B22431A6310BD9EB4010869
:106E5000490300000010024010B50400032803D9C4
:106E6000064807490AF0AAFC0321064B1A6B8A431D
:106E70001A631A6B22431A6310BDC0469EB4010800
:106E80005F030000001002400C22F8B5324C0500F0
:106E900063681340082B47D163686068C02107000E
:106EA0009B0C0332490213400F409E1C08422DD117
:106EB0002A4B5E4331002E60626829481206120F89
:106EC000825CD140696062685205520F825CD14099
:106ED000A960226BD20529D560688A08400400D4D5
:106EE0004A081120EA60226B1E4B5206D2178243D9
:106EF000D2182A61206B3200C00600D41A4A6A6197
:106F00000322206B104213D1A961F8BD80231B021C
:106F10009F4201D1144BCCE7E16A13481140013183
:106F200012F01AF84643C5E70F4EC3E70F4AD8E7F9
:106F3000216B1140012901D1AE61E6E7236B1340BB
:106F4000022B03D180231B02AB61DEE7236B1340CE
:106F5000032BDAD1044BF7E70010024000093D0093
:106F600010A001081280000000127A00809FD50056
:106F700080220A4B10B5034004005200934207D010
:106F800080239B00984203D0054806490AF016FC6E
:106F9000054A136A2343136210BDC046FFFDFFFF7D
:106FA0009EB401083E0400000010024010B5094CD8
:106FB000012809D9084809490AF000FC8023226AFF
:106FC0001B021343236210BD0028F7D1236A044A31
:106FD0001340F7E7001002409EB401084F04000080
:106FE000FF7FFFFF10B5094C012809D9084809495E
:106FF0000AF0E4FB8023226A5B021343236210BD84
:107000000028F7D1236A044A1340F7E70010024032
:107010009EB4010866040000FFFFFEFF0D4B70B533
:1070200004000E00184201D1002803D10A480B4980
:107030000AF0C4FB0A4D012E07D9074809490AF096
:10704000BDFB6B6923436B6170BD002EF9D16B6989
:10705000A343F8E7AAFFA1FE9EB401088A0400003A
:10706000001002408B040000F8B50C4F05000E0024
:1070700038000B490AF0A2FB0A4C012E08D99621D0
:107080003800C9000AF09AFBA3692B43A361F8BD3D
:10709000002EF9D1A369AB43F8E7C0469EB40108BE
:1070A000AF04000000100240F8B50E009B210B4F0A
:1070B0000500C90038000AF081FB094C012E07D9F0
:1070C000380008490AF07AFBE3692B43E361F8BD15
:1070D000002EF9D1E369AB43F8E7C0469EB401083E
:1070E00000100240D90400000D4B70B504000E00E2
:1070F000184201D1002803D10A480B490AF05EFB6F
:107100000A4D012E07D9074809490AF057FBAB6A17
:107110002343AB6270BD002EF9D1AB6AA343F8E7FD
:10712000FFFFA1FE9EB40108F6040000001002401B
:10713000F7040000F8B50C4F05000E0038000B49AD
:107140000AF03CFB0A4C012E08D9A3213800C900E3
:107150000AF034FBE3682B43E360F8BD002EF9D15D
:10716000E368AB43F8E7C0469EB40108170500008A
:1071700000100240F8B50B4F05000E0038000A4918
:107180000AF01CFB094C012E07D9380008490AF007
:1071900015FB23692B432361F8BD002EF9D1236928
:1071A000AB43F8E79EB401083B0500000010024025
:1071B0003C050000431E70B504000E003E2B03D9B1
:1071C00009480A490AF0FAFA094D012E07D906487A
:1071D00008490AF0F3FA2B7823432B7070BD002E78
:1071E000F9D12B78A343F8E79EB401086E0500009F
:1071F000091002406F05000070B50400174D5728B4
:1072000029D013D8412826D014D821281BD011D832
:10721000102302009A43012A01D019280AD12868B4
:107220001F231C40E0401E3B184070BD5F280CD857
:10723000582810D1B3210A48C9000AF0BFFA6309DF
:10724000EDD0012B05D1286AEAE76128F2D1686BFD
:10725000E6E7022BFBD1686AE2E7C0460010024075
:107260009EB4010813B50023A0240193E40111206A
:10727000FFF7C2FF019B01330193019BA34201D0A1
:107280000028F4D01120FFF7B7FF431E9841C0B289
:1072900016BD8023024A5B04516A0B435362704758
:1072A0000010024010B50400202816D8032807D883
:1072B000431E012B0AD90A480A490AF07FFA05E061
:1072C000094B021FD2B2D340DB07F4D5074B9868B5
:1072D0002040431E9841C0B210BD8028F6D0EAE796
:1072E0009EB40108DD0500001110001000100240DE
:1072F00010B50400430601D4002803D10348044913
:107300000AF05CFA034B1C7010BDC0469EB4010825
:10731000FC0500000A1002400023092803D81B01C5
:107320001843C0B2704701330A38DBB2C0B2F4E789
:10733000030902000A200F2158430A408018C0B2F6
:107340007047002303607F3343608033836070475E
:1073500010B5084C012806D9D72107480AF02EFAA3
:10736000FF23636210BD0028FAD1CA236362773B12
:10737000F7E7C04600280040CBB40108002313B54E
:10738000402401930B4B0120DA68224211D10122E3
:1073900080205242DA60C001DA680199224001314E
:1073A00001910199814201D0002AF5D0D8684006A8
:1073B000C00F16BD002800408021024AD3688B43CD
:1073C000D3607047002800404022036870B59343A3
:1073D0000500002B03D0952118480AF0EFF96B68DF
:1073E0007F2B03D9962115480AF0E8F98023AA6873
:1073F0001B029A4203D3972110480AF0DFF9CA23EF
:107400000F4C6362773B6362FFF7B8FF002811D02F
:107410004022A3689343A360A3682A681343A36030
:10742000AB6823616B6822691B0413432361FFF778
:10743000C3FF0120FF23636270BDC046CBB40108C7
:1074400000280040002313B5202401930F4B012096
:107450009A68224218D1CA22A02180205A62773A23
:107460005A62DA6800028A43DA60DA6801992240D7
:10747000013101910199814201D0002AF5D0FF220A
:10748000D8685A628006C00F16BDC046002800406A
:10749000CA2310B50E4C6362773B6362FFF76EFF41
:1074A000002812D000230B4A23606260A2680A4AB7
:1074B000A3602261E361E362E3636364E3602364E6
:1074C000FFF7C0FF431E9841C0B2FF23636210BDA7
:1074D0000028004001210000FF007F0070B505007A
:1074E000012804D9B5210E4849000AF067F9CA23DA
:1074F0000C4C6362773B6362FFF740FF002808D0C3
:107500001023A268002D07D01343A360FFF754FF98
:107510000120FF23636270BD9A43A260F6E7C04674
:10752000CBB401080028004010B50400012804D99C
:10753000CC210B4849000AF041F9CA22094B5A6292
:10754000773A5A62002C06D09968333A0A439A6017
:10755000FF225A6210BDDF219A680A40F7E7C04651
:10756000CBB4010800280040F8B50C00524D0128AA
:1075700056D9D2215148FF310AF020F9AE6820785F
:10758000FFF7D6FE402332001A401E4200D18BE0A6
:1075900001380B2804D9E8214848FF310AF00EF9D8
:1075A0004022E378934304D0F421444849000AF090
:1075B00005F96078FFF7BCFE3B2804D9F0213F486D
:1075C000FF310AF0FBF8A078FFF7B2FE3B2804D9A0
:1075D000F8213A4849000AF0F1F8237862781B0450
:1075E00012021343A278E478134324041C43CA23F1
:1075F0006B62773B6B62FFF7C1FE00280DD0304B0A
:107600001C402C60FFF7D8FEAB6801209B0604D419
:10761000FFF718FF431E9841C0B2FF236B62F8BD0D
:107620000B780028AAD1A968402208001040114216
:1076300033D0013B0B2B04D9D8212048FF310AF06D
:10764000BDF84022E378934304D0EC211B48490065
:107650000AF0B4F863783B2B04D9E0211748FF31D6
:107660000AF0ACF8A3783B2B04D9F0211348490069
:107670000AF0A4F82078FFF74FFE07006078FFF7C4
:107680004BFE0600A078FFF747FEE4783F04240491
:1076900004433C4336023443A9E7E070172BD9D9A1
:1076A000DE210648FF31D3E7E270172800D880E7D3
:1076B000EE210248FF317AE700280040CBB40108F0
:1076C0007F7F7F000023C370037043708370704717
:1076D000F8B506000C00012803D9114811490AF039
:1076E0006DF8114B114A1B683F2013401A0C1D0AFC
:1076F000DFB240231040EDB21A4020706570A770D1
:10770000E270002E0AD1FFF713FE20702800FFF769
:107710000FFE60703800FFF70BFEA070F8BDC0468A
:10772000CBB401084B020000002800407F7F7F009F
:10773000014B986A5B68704700280040F8B5060066
:107740000D00012820D93E483E490AF037F8E87874
:10775000FFF7EEFD632804D9A521394889000AF016
:107760002DF86878FFF7E4FD01380B2803D9344879
:1077700035490AF023F8A878FFF7DAFD01381E280A
:1077800023D9A6212E481DE00028E0D110224B78F5
:10779000134202D093430A334B70EB78632B03D927
:1077A00027482A490AF00AF86B78013B0B2B03D9CA
:1077B000234827490AF002F8AB78013B1E2B04D975
:1077C000A4211F48890009F0F9FF2B78013B062B03
:1077D00003D91B481F4909F0F1FFE8786F78AC78AE
:1077E0002D786D03002E1ED00004CA2328431A4DA5
:1077F00004436B62773B3F026B623C43FFF7BEFD85
:1078000000280DD0154B1C406C60FFF7D5FDAB6810
:1078100001209B0604D4FFF715FE431E9841C0B219
:10782000FF236B62F8BDFFF777FD06003800FFF716
:1078300073FD07002000FFF76FFD3404D5E7C04655
:10784000CBB4010886020000960200008E02000000
:107850008F0200009A020000002800403FFFFF0056
:1078600001230370837043700023C3707047F8B521
:1078700006000C00012803D90F48104909F09EFFAB
:107880000F4B104A5B681340180CDD04DFB21B0479
:10789000ED0E5B0FE0706570A7702370002E0AD1AB
:1078A000FFF746FDE0702800FFF742FD60703800EA
:1078B000FFF73EFDA070F8BDCBB40108F302000055
:1078C000002800403FFFFF00F7B506000D00140040
:1078D000012803D969486A4909F070FF80235B00D9
:1078E0009D4204D0CC216548890009F067FF626899
:1078F000644B1A4203D06148634909F05FFFA268F4
:10790000624B1A4203D05D48614909F057FF207865
:10791000604D002E56D1AB685B0648D501380B2868
:1079200004D9CE215548890009F048FF4022E37868
:10793000934303D05148584909F040FF63783B2BEB
:1079400004D9D0214D48890009F038FFA3783B2B9A
:1079500003D94A48514909F031FF237BA268013B12
:10796000DBB2002A29D11E2B03D944484C4909F027
:1079700025FF2078FFF7D0FC06006078FFF7CCFCED
:107980000190A078FFF7C8FC0700207BFFF7C4FC3C
:107990006268A36836041343E278000612041343B6
:1079A0003B431E43019B1B021E43304352E0E670E3
:1079B0001728C3D931483B49BEE7062BD9D92F48F0
:1079C0003949D4E7AE68FFF7B3FC402332001A40D0
:1079D0001E4247D001380B2803D92848334909F003
:1079E000EDFE4022E378934303D02448304909F068
:1079F000E5FE6078FFF79CFC3B2803D91F482D4922
:107A000009F0DCFEA078FFF793FC3B2803D91B4864
:107A1000294909F0D3FE207BFFF78AFCA6680138CC
:107A2000002E25D11E2804D9D8211448890009F038
:107A3000C5FE6368A0681843A378184323781B0425
:107A4000184363781B021843E3781B041843237B15
:107A50001B061843CA236B62773B6B62AC33E86149
:107A60006B62F7BDE2701728C3D904481349BEE71B
:107A70000628DED901481249D9E7C046CBB401082F
:107A80002F0300007F7F7F7F31030000FFFFFFBFD8
:107A900032030000002800403903000041030000C9
:107AA000450300003E0300004903000051030000AD
:107AB000520300005A0300005B030000570300005C
:107AC0006503000000230360436083600133037398
:107AD0007047F7B50D0014000190012804D9ED217D
:107AE0001C48890009F06AFE80235B009D4203D098
:107AF0001848194909F062FE4026184B7F25DB69BA
:107B00003F211A0C10003240E2708022D2051A4048
:107B1000A260134A1F0A2F401E0E1D4013406360CF
:107B2000019B08400E4020706770A5702673002BE3
:107B30000ED1FFF7FDFB20703800FFF7F9FB6070F6
:107B40002800FFF7F5FBA0703000FFF7F1FB207372
:107B5000F7BDC046CBB40108B503000000280040C3
:107B600080808080002337B504000D000193C30599
:107B700004D4F9211648890009F020FE012D03D90B
:107B80001348144909F01AFECA22134B5A62773A75
:107B90005A629A68002D05D0012022439A60FF2284
:107BA0005A623EBD8020A2439A60240AC001DA686E
:107BB00001992240013101910199814201D0002AAD
:107BC000F5D0D8682040421E9041C0B2E7E7C046D9
:107BD000CBB40108E503000000280040802370B505
:107BE0005B000D001400984203D00F480F4909F0C4
:107BF000E5FD80231B029D4203D30B480C4909F08D
:107C0000DDFD0F2C04D988210748C90009F0D6FDF5
:107C1000CA22084B24065A62773A5A622C43AC3285
:107C20005C645A6270BDC046CBB401083E040000DB
:107C30003F04000000280040024B586C4004400CF8
:107C40007047C0460028004010B50400042805D93C
:107C5000062803D009480A4909F0B0FDCA220721C5
:107C6000084B5A62773A5A629A688A439A609A68CD
:107C700022439A60FF225A6210BDC046CBB401086D
:107C80008704000000280040802310B55B02040038
:107C9000984203D30648074909F090FDCA22064BD3
:107CA0005A62773A5A62AC325C615A6210BDC04681
:107CB000CBB40108A304000000280040014B586920
:107CC00080B2704700280040002313B504000193E0
:107CD000012803D91448154909F070FDCA22144B34
:107CE0005A62773A5A62002C08D0802201209968A3
:107CF000D2000A439A60FF225A6216BD80240420F3
:107D00009A680C49E4010A409A60DA6801990240D5
:107D1000013101910199A14201D0002AF5D0D86822
:107D20004007C00FE7E7C046CBB40108CA04000013
:107D300000280040FFFBFFFF104B70B5C218104B2E
:107D400004000D001A4203D00E480F4909F036FD19
:107D50000E4E354203D00B480D4909F02FFDCA22C3
:107D60000C4B5A62773A5A629A6832409A60FF2204
:107D700098682843204398605A6270BD0000FFFF56
:107D8000FFFFFEFFCBB4010814050000FFFFFBFF5F
:107D90001505000000280040024B98688023DB0294
:107DA0001840704700280040104B70B504000D00CB
:107DB000184203D00E480F4909F000FD0E4B1D423A
:107DC00003D00B480D4909F0F9FCCA220C4B0D49B0
:107DD0005A62773A5A629A680A409A60FF22986813
:107DE0002843204398605A6270BDC046FFFFDFFF02
:107DF000CBB4010853050000FFFFEFFF540500005E
:107E000000280040FFFF8FFF10B50400012803D9B0
:107E10000B480C4909F0D2FCCA220B4B5A62773A44
:107E20005A62002C07D08022996812040A439A6093
:107E3000FF225A6210BD9A6804490A40F7E7C0461B
:107E4000CBB401087D05000000280040FFFF7FFF44
:107E500070B50B4D0400284203D00A480A4909F0C6
:107E6000ADFCCA22094B5A62773A5A629A682A4094
:107E70009A609A6822439A60FF225A6270BDC04697
:107E8000FFFFF7FFCBB401089D050000002800406C
:107E90001D4B70B505000C001600184207D080235A
:107EA000DB01984203D01948194909F087FC194BA6
:107EB0001C4203D01548184909F080FC80239B0020
:107EC0009E4204D3B9211148C90009F077FCCA22A7
:107ED0008021124B49025A62773A5A62DA680A42A2
:107EE00006D00F4AD868084202D0013A002AF9D1D8
:107EF000DA680020D20303D434432C43DC6301301E
:107F0000FF225A6270BDC046FFDFFFFFCBB40108FD
:107F1000C6050000FF7FFFFFC705000000280040E6
:107F2000011000000823020070B59A4304000D0000
:107F3000002A03D00E480F4909F040FC012D04D956
:107F4000C2210B48C90009F039FC0B4B0B499A6858
:107F50000A401443002D02D0802212011443CA2289
:107F60005A62773A5A62AC329C605A6270BDC0461F
:107F7000CBB401080F06000000280040F7F7FFFF10
:107F8000F0B585B00D0014000290012803D92048F7
:107F9000204909F013FC3F2040211F4B1F4A1E6B54
:107FA0005B6B16401E4A370A1340320C10400A40E1
:107FB000EA700022FFB2F6B228706F70AE70E27005
:107FC000DA04D20E00926270DAB21B045B0F0193E6
:107FD0002370029B0392A270002B16D1FFF7A8F921
:107FE00028703800FFF7A4F968703000FFF7A0F997
:107FF000A8700098FFF79CF960700398FFF798F954
:10800000A0700198FFF794F9207005B0F0BDC0464C
:10801000CBB401083C060000002800407F7F7F00B1
:108020003FFFFF00014B986B7047C046002800409F
:108030002923020070B59A4304000E00002A01D1E2
:10804000002803D10A480B4909F0B8FB0A4D640027
:10805000012E06D90648094909F0B0FB2B6C2343D1
:1080600003E0002EFAD12B6CA3432B6470BDC046F5
:10807000CBB401088A060000002800408B060000EF
:108080002923020070B59A4304000E00002A01D192
:10809000002803D109480A4909F090FB094D012E37
:1080A00007D90648084909F089FB2B6C23432B6448
:1080B00070BD002EF9D12B6CA343F8E7CBB40108B7
:1080C000A606000000280040A706000070B5084D75
:1080D0000400284203D00748074909F06FFB074B0B
:1080E0001A6C2A401A641A6C22431A6470BDC04686
:1080F000FFE7FFFFCBB40108C506000000280040E1
:1081000002000B4B10B51A400400184207D0802320
:10811000DB009A4203D00748074909F04FFB074BA1
:1081200007491A6C0A401A641A6C22431A6410BD7B
:10813000FFFCFFFFCBB40108E70600000028004069
:10814000FFF8FFFF70B5084D0400284203D0074830
:10815000074909F033FB074B1A6C2A401A641A6C62
:1081600022431A6470BDC046FF9FFFFFCBB40108D5
:10817000FE0600000028004010B5094C012808D96F
:108180000848094909F01AFB8023226C1343236431
:1081900010BD0028F8D18022236C9343F7E7C04636
:1081A00000280040CBB401081207000010B5094CAC
:1081B000012808D90848094909F000FB236C084A3E
:1081C0001340236410BD0028F8D18023226C1B02C9
:1081D0001343F6E700280040CBB40108290700004C
:1081E000FF7FFFFF002337B504000D000193042833
:1081F00003D90648064909F0E1FA064BA4000193A9
:10820000019BE4180194019B1D6037BDCBB40108AC
:108210005407000050280040002313B504000193C8
:10822000042803D90648074909F0C8FA064BA400F8
:108230000193019BE4180194019B186816BDC04688
:10824000CBB40108690700005028004070B5084D04
:108250000400284203D00748074909F0AFFA074B4A
:108260001A6C2A401A641A6C22431A6470BDC04604
:10827000FFFFFBFFCBB401088F0700000028004080
:1082800070B5430005000E00002B04D0F7211648FE
:10829000C90009F093FA80231B029E4203D31248BF
:1082A000124909F08BFACA230822114C6362773B0A
:1082B0006362E368134206D00E4BE168114202D0BC
:1082C000013B002BF9D1E36800201B0709D4A36808
:1082D000DB0606D43543E562FFF7B4F8431E984148
:1082E000C0B2FF23636270BDCBB40108B9070000C0
:1082F000002800400110000070B504000D000028A7
:1083000002D0134B184203D01248134909F056FA11
:10831000012D03D90F48114909F050FACA22200053
:108320000F4B5A62773A5A624F3A9043996822400B
:10833000002D07D001439960196C0A431A64FF228B
:108340005A6270BD81439960196C91431964F6E7D4
:10835000FB6FFFFFCBB401082208000023080000D8
:1083600000280040802310B55B000400984206D02E
:108370001CD8202817D803280AD801280DD1164B5D
:10838000D868164B20401840431E9841C0B210BD1B
:10839000134B021FD340DB07F1D48521114809019B
:1083A00009F00CFAEBE74028F7D1E8E780239B01BE
:1083B0009842E4D009D80C4B0C4AC3181342DED0C3
:1083C00080235B019C42E8D1D9E78023DB019842FE
:1083D000D5D080235B02F5E70028004078790100C2
:1083E00011100010CBB4010800FCFFFFFFFBFFFFE2
:1083F00010B5041E02D0094B184204D0872108484A
:10840000090109F0DBF90749074A0C4080210C43B8
:10841000E443D3680B401C43D46010BDDF86FFFFEC
:10842000CBB401087FFF010000280040802370B515
:108430001B02040098420CD080235B01984208D0B4
:10844000104B114AC318134203D01048104909F0C9
:10845000B5F925000F490B6C8A68C868A10CCD409E
:10846000E90B0B40042122400B40134300229342AE
:1084700005D0CC40204080B2431E9841C2B21000CB
:1084800070BDC0460000FEFFFFFFFDFFCBB401083A
:10849000860800000028004010B5041E02D0094BD9
:1084A000184203D00848094909F088F980212409B5
:1084B000A4B20C43E443064AD3680B401C43D46087
:1084C00010BDC046FF6FF9FFCBB40108AC08000037
:1084D00000280040104B10B598420AD1802001219D
:1084E0004001FEF727FE802000214001FEF722FE1A
:1084F00010BD0A4B984204D04A21094809F05EF9A0
:10850000F6E780200121C001FEF734FE8020002123
:10851000C001FEF72FFEEBE70030014000380040BD
:10852000F8B401080023E02203804380D200C38016
:10853000038143818381C381073382800382704733
:10854000534B70B505000C00984206D0514B984231
:1085500003D08821504809F031F923884F4E334227
:1085600009D04F4A134080221202934203D08B213C
:10857000494809F023F9822263885200934205D0CA
:10858000002B03D08C21444809F018F93200C02197
:10859000A388444E89001A408A4219D0424A0131C8
:1085A000FF311A408A4213D0C0221900D200314054
:1085B00091420DD080213D4A09011A408A4207D0DC
:1085C000F0221201934203D08D21334809F0F6F8CE
:1085D0000222E388934303D08E212F4809F0EEF85E
:1085E0002389012B03D98F212B4809F0E7F86289F1
:1085F0002F4B1A4203D09021274809F0DFF8A389B6
:10860000002B12D0182B08D8072B04D89121224810
:1086100009F0D4F809E0274A04E0203B9BB2182B6C
:10862000F4D8254ADA40D207F0D58022E389934373
:1086300003D09221184809F0C1F8238A002B03D1F6
:108640009321154809F0BAF8C1232A889B01E189D2
:108650001A4023880B43E1880B4321890B4361892E
:108660000B43A1890B431A432A80AB88134A13405A
:10867000A28813430422AB80238A2B822B88934346
:10868000628813432B80AB8B3340AB8370BDC046F5
:108690000030014000380040F8B40108FFFBFFFF44
:1086A000FFBFFFFFFFF7FFFFFFF6FFFFFFFCFFFF2E
:1086B000FFFDFFFF0001010101010101FFF0FFFFCC
:1086C0000023022203604360826083817047F0B51B
:1086D000454B05000C0089B0984203D0F421434873
:1086E00009F06CF82288424B1A4203D0F5213F482A
:1086F00009F064F8638830221900914305D0B02B4B
:1087000003D0F621394809F059F8A288052A03D880
:108710002B23D340DB0703D4F721344809F04EF86C
:10872000E288344B1A4203D0F821304809F046F869
:10873000314AA3689918314A914205D9022B03D0D6
:10874000F9212A4809F03AF80822A389934303D073
:10875000FA21264809F032F8AB8B294A1340AB8343
:1087600002232B84AE8BA368A788B6B2022B13D149
:10877000002202231343E28813432B846288238858
:1087800013431E43A3881E43A3891E4380231B015A
:108790003343AB8309B0F0BD01A8FEF775FB7B1E28
:1087A0009F418023E288019801379B009A4215D1AE
:1087B000030A0A205843A16810F0CEFB05300A21B5
:1087C00080B210F0C9FB0123020098431A4043080D
:1087D0009BB2991EFD29CBD81202CBE7790110F08C
:1087E000BBFB0A23E6E7C04600300140F8B40108AD
:1087F000FFFCFFFFFFFDFFFFC0E0FFFFC0CE020058
:1088000040F0FFFF0F4B70B504000D00984207D0F9
:108810000D4B984204D0AB210C48490008F0CEFF24
:10882000012D09D958210948FF3108F0C7FF40231D
:1088300022881343238070BD002DF8D14022238865
:108840009343F7E70030014000380040F8B40108D6
:108850000E4B70B504000D00984204D0BB210C48AB
:10886000490008F0ABFF012D09D978210848FF31F4
:1088700008F0A4FF1023A2881343A38070BD002D2D
:10888000F8D11022A3889343F7E7C0460030014097
:10889000F8B401080E4B70B504000D00984204D0E6
:1088A00090210C48FF3108F089FF012D0AD9C82119
:1088B0000848490008F082FF8023A28BDB001343A5
:1088C000A38370BD002DF7D1A38B034A1340F7E7B4
:1088D00000300140F8B40108FFFBFFFF1A4B70B5F0
:1088E00005000C00984207D0184B984204D0DB21B9
:1088F0001748490008F062FFC022164B920023403F
:1089000093421AD0144B0132FF322340934214D0C9
:10891000C022124BD200234093420ED08022104B33
:1089200012012340934208D0F0231B019C4204D043
:10893000B8210748FF3108F041FFAB88094A1340CE
:108940001C43AC8070BDC046003001400038004080
:10895000F8B40108FFFBFFFFFFF6FFFFFFF7FFFF83
:10896000FFFCFFFFFFF0FFFF0E4B70B504000D0092
:10897000984207D00C4B984204D0D0210B48FF31CD
:1089800008F01CFF0A4E354204D0E8210748490090
:1089900008F014FFA3883340A380A3882B43A3804F
:1089A00070BDC0460030014000380040F8B40108F6
:1089B000FFEFFFFF114B70B504000D00984207D088
:1089C0000F4B984204D0E6210E48FF3108F0F6FE26
:1089D0000D4B9D420CD08023DB019D4203D12388A7
:1089E0001D43258070BDF3210648490008F0E6FECE
:1089F0002388064A13402380F4E7C0460030014034
:108A000000380040F8B40108FFBF0000FFBFFFFFBF
:108A1000104B70B504000D00984206D00E4B9842E2
:108A200003D00E480E4908F0C9FE80235B009D422A
:108A30000BD00C4B9D4204D123880B4A134023805A
:108A400070BD0648094908F0B9FE802322885B0002
:108A50001343F4E70030014000380040F8B4010847
:108A600001020000FFFE0000FFFEFFFF0202000007
:108A70000F4B70B504000D00984207D00D4B984283
:108A800004D087210C48890008F098FE012D08D9F0
:108A900009480A4908F092FE0423A2881343A380E0
:108AA00070BD002DF8D10422A3889343F7E7C04698
:108AB0000030014000380040F8B401081D020000F9
:108AC0000E4B70B504000D00984206D00C4B984236
:108AD00003D00C480C4908F071FE012D08D9094853
